:02000004C0DE5C
:1000000080B56F4603F062FB012002F069FDFEDE61
:10001000F0B503AF4DF804BD0546007801242B2848
:1000200012D02D284FF0010014D000260024012EFC
:100030000DD0A85D0A2101F0CDF838B104EB8400A1
:10004000013601EB4004F2E7012003E00124701EB9
:1000500018BF012021465DF804BBF0BD08B9084671
:100060007047E0B502AF0448791E044A78447A44E8
:1000700001F099FBFEDE00BF4E5500008E4D0000E2
:1000800080B24FF60371884208BF7047E0B502AFF7
:100090000348B91E034A78447A4401F084FBFEDE2B
:1000A00024550000744D000080B56F46C6B001AC09
:1000B00040F21111204604F087FD20464FF46041C4
:1000C00002F0FFFD002002F00BFDFEDE80B56F4662
:1000D000ADF50A6D0DF1900A40F21111504604F091
:1000E00073FDD6480E21784402F05AFFD4480F2100
:1000F000784402F06FFF0AF108050DF5AB666FF466
:10010000F1743CB13019A12100F2E31004F061FD5B
:10011000A134F6E769AC202104F2032004F059FD74
:10012000204603F092FA04F12000314640F2E31237
:1001300004F01CFD304603F088FA06F243208021CB
:1001400004F047FD06F12000214640F2232204F08E
:100150000DFD2046192104F037FD04F11900314648
:1001600040F2C3220F9004F0FFFC04F537708221A7
:10017000129004F029FD06F108001390B01C1190B4
:10018000A7F15000DFF84CBB0130049004F51F705C
:100190000B9004F52F700A9004F517700E9004F57B
:1001A0002770099004F50F70089004F53F700AF568
:1001B0008678219004F54F700D9004F547700C90EF
:1001C00004F1390005901F95CDF88C801AE002F0FB
:1001D000F7FD08B902F0FEFD3046802102F0ECFD8B
:1001E0009DF85805BDF8594502F0D8FDC1B2A1F1FE
:1001F0000E0008281BD8DFE800F005112633333342
:1002000033332F003046802104F0DEFC09EB0B0075
:10021000002109F80B1081714180D8E7A0B2B0F538
:10022000807F1DD19DF85B0502F0E6FD18E00529F1
:1002300016D19DF85B054108404602F06FFEC0B242
:1002400006280DD05AE020BA000C022808D928460A
:10025000314602F00BFE03E02846314602F040FE34
:1002600019F80B000028B2D009EB0B0040880028D9
:10027000ADD024909DF89900042805D950464FF43C
:10028000DC4102F01EFDA2E76E497944085C6E4B2A
:100290006E4A7B447A44DFE810F0050036008700A0
:1002A000E5000F016A48784420906A4C7C44A047DE
:1002B000229100F00100684D7D44A8476748AA4696
:1002C0007844A04700F001008846A8472098A0473E
:1002D00000F001000D46D0470DF1900A8DF85985C8
:1002E000DDE9220831468DF85805504603228DF885
:1002F0005A551F9D02F03BFD00F06DBD04287FF4B0
:1003000081AF00F0BABE0DF5D278404602F076F823
:10031000012003F09DF9DDF85805002800F0FD806C
:10032000DDF85C1547E92001A7F18000414602F0A5
:1003300057FA044680B24FF60371884240F00081BC
:10034000A7F178054146284602F0EAFB13984121BF
:1003500017F8784C04F038FC41203146CDF85C05A4
:1003600020462A4601238DF8584504F0D0FB70B989
:10037000A7F1500511994A229DF8588528469DF805
:10038000594504F0F1FBB8F1200F40F040820B24F6
:100390004FF02008A7F1780002F0A8F8B8F1200F7C
:1003A00040F0EF806821CCE030465146CDE91D2376
:1003B0009DF89A509DF89B8002F0A2FCDDF858450C
:1003C000002C00F0AE80DDF85CA5002D47E91E4A48
:1003D00000F0BC8012982146524602F06BF81F9D37
:1003E000B8F1000F00F0DF841D480F21784402F0BF
:1003F000D7FD30462146524601F05CFF9DF8580576
:10040000DDF88C80A0B904983F2211999DF85945D8
:1004100004F0AAFB07F8504CA7F1500430464022E4
:10042000214601F011FADDF85805002800F0C083DC
:100430000DF1900A68210B2400F0CEBD364D00006E
:100440003A4D0000B24B0000C6530000D72A00000E
:10045000944B000061FDFFFFA1FDFFFF7B4B0000FF
:10046000FC4C000069A801F0C9FF042003F0F0F87B
:10047000DDF85885B8F1000F58D0DDF85C451F2C29
:1004800040F2FF85A7F150004146202202F012F809
:1004900008F12001A4F12002304602F00BF8A7F188
:1004A00050043146204602F0DFF950462146202212
:1004B00002F05DFC00F08DBC9DF89B0051461C9045
:1004C0003046CDE91D239DF89A4002F019FCDDF875
:1004D000581581B3DDF85C25042C2292CDF8542503
:1004E0001046CDF8501500F27684E94A7A44DFE8E8
:1004F00014F005005C009500B300360169AC20469D
:1005000001F07CFF032021468DF8BC010DF5AA60A7
:1005100002F066F9044680B22BE0BDF85C45210A82
:100520000FE0BDF85C45210A00F053BDBDF85C4505
:10053000210A00F04FBDBDF85C45210A00F04CBD1A
:10054000FF21DDF88C801F9D00F046BD69AC204680
:1005500001F054FF022021468DF8BC01A7F178007C
:1005600002F03EF91F9D0446DDF88C8080B20DF14B
:10057000900A4FF60371884200F02D84FF2100F0AD
:100580002BBD11980DF204514A228DF859458DF872
:10059000588504F0E9FA13995046412202F0E7FB2E
:1005A000DDF88C801F9D00F016BCBA4D3046229AB3
:1005B00020237D44A8470DF5AB68DDF86405229043
:1005C00098E80601B44C0F987C44A04703F023F848
:1005D0000DF5AB68DDF8640522900E9898E80601E9
:1005E000A04703F018F80DF5AB68DDF8640522901C
:1005F0000A9898E80601A04703F00DF80DF5AB68DE
:10060000DDF8640522900B9898E80601A047414662
:100610000998DDE922281F9DA047DCE3229A304695
:10062000202302F049FA059CDDF85815DDF85C2519
:10063000DDF8600522902046DDF8648501F03AFF80
:10064000089842462299DDF88C8001F033FF21980A
:10065000214602F009F9BEE31B923046229A20237C
:1006600002F02AFA0DF5AB65304636CD01F022FFD7
:100670001C9A022A00F2F68469A8A12102FB010853
:1006800022953146202208F15905284604F06CFADB
:1006900021982946229D02F0E7F8002D00F0F7840A
:1006A00020786A1E88F87900304614F8013B21460C
:1006B00002F002FADDF85C45212C80F0EC84DDF8D4
:1006C00058552146DDF8600523462090DDF8640585
:1006D0002A461E9008F17A00CDF8888001F068F86B
:1006E00030464FF4D47104F03DFAA7F150004FF0BA
:1006F00000082021CDF8048504F066FA30464FF456
:10070000807104F013FAA7F150000090202001211D
:10071000019030462A46234604F0FEF920200021AD
:1007200004F0BAF80DF20450A7F150022021202362
:1007300004F0C4F8FF245FEA08601AD1FA2C18D339
:10074000DDF80405214604F0E7F8FB2C4FF0000823
:1007500038BF4FF00108FA2C88BF013CEBE71C9C26
:100760001B92002C209159D069A8022C5BD900F073
:100770007DBCA7F15005DDF804052022294604F0D0
:10078000B3F80DF2045004F0A5F8229800F19A0491
:10079000804604F08BF820462946202204F0E4F934
:1007A000219821461B9A9047209930461E9A202373
:1007B00002F082F9DDF86005DDF85815DDF85C25FA
:1007C0002090DDF864051E90304601F073FE08F1BC
:1007D000BA04314620224546204604F0C5F9DDF82A
:1007E000848021461B9A40469047209930461E9AA5
:1007F00001F060FE05F1DA0431462022204604F0C3
:10080000B3F91B9A4046214690471F9DE1E20DF245
:10081000045029464A2204F0A9F9BBE52198089919
:1008200002F022F869A8A121202204FB01001A90FD
:1008300010F8F98FA0F17F0107903046109101F078
:1008400003F8DDF85805002840F02884002005460C
:10085000C1B2414538BF013520D24001C1B2229A10
:1008600001F12000904200F20484209820224418D4
:100870003046214601F01EFE30462146202201F07E
:1008800019FE2198314601F0EFFF2846E0E700BF4E
:100890007923000003250000E91E00001C9D9DF83F
:1008A000FC41681C0690A04275D130461F219DF87E
:1008B000FF5304F089F9DDF8848005EB84001B9D6B
:1008C00002308DF8770531464046A847EA49304660
:1008D0002022794404F048F9129C31462046A8476A
:1008E00009992046A8470F992046A847304602F0AC
:1008F000ACFE20463146A84720464146A8470E99FF
:100900002046A8470A992046A8470B992046A847A1
:1009100030461F2104F058F9082031468DF877053C
:100920002046A84700252020002147F8505C03F00E
:10093000B3FFA7F1500020212246202303F0BEFF81
:100940008DF8045540F201111C9D4C1E21D057F822
:10095000500C02390DF2045203F0D2FF9DF8040549
:1009600021460028F1D0F72C13D904F007000138F4
:10097000042810D257F8500C042103F0D7FF57F881
:10098000500C2022129903F0AFFFA7F1500003F0A2
:10099000A1FF03F08BFFB94878441490B84878441D
:1009A0001B903DB19DF8FC0101280CD9B5481821D8
:1009B00078440BE09DF8FC01012840F21282B24815
:1009C0001321784410E2B1481321784402F0E8FA88
:1009D000022D00F249831A98202200F15901304675
:1009E00001F068FC02F0F8FD0DF2045402F004FE80
:1009F00002F0FDFD02F022FE0446A54802F059FE79
:100A0000784402F0EFFD199129461C901022A1486C
:100A10002023784402F0BAFDCDE9171029469E48FC
:100A200020223023784402F0B1FDCDE9151029468B
:100A30009A4830224023784402F0A8FD02F0A9FD34
:100A40001C98CDF86005092002F0DEFD944878443A
:100A5000CDF85805072047F87C0C02F07EFD0028F1
:100A600000F0B5821A9C20211098002294F8793069
:100A700001F0ABFC02460B46114630461A4600F028
:100A8000E3FE02F0DBFD94F87930864A7A44009266
:100A9000002201F07BFC47E91201092047F84C0CC9
:100AA000A7F178018048CDF86815784447F8500CD4
:100AB000072047F87C0C1B9847F8800C0120CDF8E4
:100AC0006C05CDF86405A7F18000CDF86005022023
:100AD000CDF85C05A7F15000CDF85805062047F881
:100AE000740C1E9847F8780C304602F09BFA0028E8
:100AF00000F06D8207982021007801EB40101090E3
:100B00000020109900F12002914200F087821C928F
:100B100000F0E002209802F12003229901F055FC38
:100B200002460B46114630461A4601F0C3FB02F05E
:100B300053FD0DF2045402F05FFD02F058FD02F087
:100B40007DFD0446594802F0B4FD784402F04AFDA8
:100B5000CDE919102946564810222023784402F086
:100B600015FDCDE91710294652482022302378443C
:100B700002F00CFDCDE9151029464F4830224023E4
:100B8000784402F003FD02F004FD1A98CDF86005E8
:100B9000122002F039FD49487844CDF85805072065
:100BA00047F87C0C02F0D9FC00281C98A9D10EE271
:100BB000DDF85C55DDF860A503F06EFFAAF10100D9
:100BC0004FF00008012147F87F8C01EB101007F867
:100BD000808CCDF85005CDF85C853948CDF860158E
:100BE00000217844CDF858054FF40070CDF80C651D
:100BF000ADF868050DF5AA60CDF810050DF20450AA
:100C0000CDF808A5CDF8045502F0EEFAA7F180055D
:100C100004E00DF20450414602F0E6FA284602F0E4
:100C2000A3F9C0B20628F9D00528F7D8DFE800F00C
:100C30001F1A190F03542348784402F031FCDDF8E1
:100C4000501508F10100884238BF8046E1E71E4890
:100C5000784402F025FCB8F1000F18BFA8F1010894
:100C6000D7E7DBE71948784402F055FCD6E7184887
:100C7000784402F050FCD1E7664D0000F119000005
:100C80006A480000F048000048470000EE480000B5
:100C9000D4480000D2480000D0480000CE480000F0
:100CA0007D480000944800006A480000FA470000B0
:100CB000F8470000F6470000F4470000984700009E
:100CC0009A4B0000844A0000884A0000564A0000FF
:100CD000684A00000000000003F0DEFE00204FF034
:100CE000010847F84F0C4FF0000A07F8500C052098
:100CF000CDF87005EE48CDF874857844CDF86C05D4
:100D00004FF40070CDF86085ADF87C050620CDF875
:100D10005C051E98CDF8580540F20120ADF8680535
:100D2000304602F067F91F9D204602F01DF9C0B25F
:100D30000628F9D0DFE800F003080D211633EE484D
:100D4000784402F0E8FBEFE7EC48784402F0E3FB7C
:100D5000EAE7EB48784402F0A3FBEA48784402F063
:100D60009FFBE1E7E948784402F09AFB4FF0010865
:100D70008DF868A58DF87C850DE0E348784402F095
:100D80008FFB01204FF000088DF8680530468DF884
:100D90007C8502F0A5FB304602F02CF9C4E75FEA3F
:100DA000C87000F0368169A801F0BAFBFFF768F956
:100DB000D7490DF1900A1D9C012279445046A04765
:100DC0000C9902F07AFC0D9902F077FC02F046FCD7
:100DD000A047DDF88C8050464FF4104101F071FFC0
:100DE0000EE1B4480921784402F0DAF80F9902F0D4
:100DF00028FC0DF204543146204601F09BFA02F023
:100E0000F6FB02F01BFC0446AB4802F052FC7844AF
:100E100002F0E8FBCDE918102946A848102220234B
:100E2000784402F0B3FBCDE916102946A4482022ED
:100E30003023784402F0AAFB02F036FCA14840239C
:100E4000784402F0A3FBCDF8780502F0B4FBCDF8AE
:100E50006005082002F0D8FB9B487844CDF858057F
:100E6000072047F87C0C02F078FB002800F0AF80E8
:100E70000E9902F0E6FB02F0AFFB0DF2045402F013
:100E8000BBFB02F0B4FB02F0D9FB04468F4802F032
:100E900010FC784402F0A6FBCDE9181029468C48D6
:100EA00010222023784402F071FBCDE91610294668
:100EB000884820223023784402F068FB02F0F4FBDB
:100EC00085484023784402F061FBCDF8780503980B
:100ED000CDF874051598CDF870051698CDF86C0509
:100EE0001798CDF868051898CDF87C150721CDF82E
:100EF00064051998CDF86005CDF85C15774847F87A
:100F00007C1CA7F178017844CDF8580502F025FB48
:100F100000285CD00B9902F094FB02F05DFB0DF20F
:100F2000045402F069FB02F062FB02F087FB044606
:100F30006B4802F0BEFB784402F054FBCDE9181078
:100F40002946684810222023784402F01FFBCDE98F
:100F500016102946644820223023784402F016FBFC
:100F600002F0A2FB614840231C9D784402F00EFB76
:100F7000CDF87805062202F01EFBCDF87C15A7F10E
:100F80007801CDF86005CDF85C25594847F8742CF8
:100F90007844CDF85805072047F87C0C1B9847F893
:100FA000800C012047F83C0C47E91101A7F18000B3
:100FB00047F8480C052047E914601E9847F8780C5C
:100FC000A7F1500002F02EF800287FF4EBAC6E2160
:100FD00002241F9DDDF88C8025988208402A9FBF3F
:100FE000504401722598013098BFB0F5827F34D209
:100FF00050440472259802302590504601F0DCFDE3
:1010000003F04AFD43480F21784401F0E3FFFFF766
:10101000F9B86E2102240DF1900ADBE706989DF8DD
:10102000FC111F9DC0B2DDF88C8088427FF4D3AEE6
:1010300069A801F075FAFFF723F82E4950461D9C68
:1010400001227944A0470C9902F037FB0D9902F078
:1010500034FB02F003FBFFF7DFBA4FF4827100F0BC
:10106000B7FBFEDE104602E0284600E020460321E2
:10107000F5E7229901F082F8FEDE002001F030FD54
:10108000FEDE28482321784400F0ACFAFEDE224838
:101090002B217844F8E720462021EBE71F48A7F1F1
:1010A00050011F4A78447A4400F07DFBFEDE00BF09
:1010B0000B44000037430000BA430000B84300006F
:1010C000B6430000B8430000D4420000864300004D
:1010D0008443000082430000844300000943000071
:1010E0002A43000028430000264300002643000056
:1010F000C8420000F73D0000504900002A490000A6
:101100004449000044490000144900000E49000011
:101110007F400000223E0000FD4400001645000014
:1011200042450000E644000080B56F46FEF7BCFF74
:10113000FEDE81293EBF0844C1F18001704780B5C1
:101140006F460846802101F019F8FEDEB0B502AF07
:10115000A2B002AA0C467F2100F00F0357250A2BEC
:1011600038BF30252B44535401390009F4D10131E3
:1011700002A8FFF7DEFF0091034604492046022241
:10118000794400F00FFD22B0B0BD00BFC13C0000AB
:10119000B0B502AFA2B002AA0C467F2100F00F0347
:1011A00037250A2B38BF30252B4453540139000909
:1011B000F4D1013102A8FFF7BCFF009103460449B6
:1011C00020460222794400F0EDFC22B0B0BD00BF01
:1011D0007D3C00000A46A0F130010A2A0DD9242ADC
:1011E00010D80A293CBF0120704740F02000613828
:1011F00010F10A0128BF4FF0FF310020914238BFA3
:101200000120704780B56F4600F0E7F9FEDED4D4C8
:10121000F0B503AF2DE9000D8EB0044600794FF014
:10122000010B00284FF0010065D126680D4660795A
:10123000984692463178490725D4364A00283649DF
:101240007A44794408BF11464FF0020208BF0322D6
:10125000D6E90603DB68984700284BD1D6E906019A
:101260005246CB6829469847002843D1D6E9060163
:101270000222CB682D4979449847D8BBBA684046CA
:101280003146904737E038B9D6E906010322CB68EA
:1012900025497944984768BB012007F83D0CA7F120
:1012A0003D0003901D4878440C90F0690290B069AD
:1012B000019096F820008DF8340096E80F00CDE9F3
:1012C0000501294670690A903069CDE90723524625
:1012D000099001A80B9000F04FF858B901A81049E7
:1012E0000222794400F048F820B9BA6805A94046BE
:1012F000904738B101202071204684F805B00EB027
:1013000002F07FB9DDE90B010222CB68054979447F
:101310009847F0E7F63C0000F23C0000063E000073
:10132000AB3C0000243C00009D3C0000173D000049
:10133000D0B502AF044600796179A9B108B10120A6
:1013400011E021680878400706D4D1E9060102229D
:10135000CB680749794405E0D1E906010122CB6851
:101360000449794498472071002818BF0120D0BD56
:10137000E63B0000D73B0000F0B503AF2DE9000DC0
:1013800090B090464FF0000A0122CDE907810D92FE
:101390000A46CDE9051A0A2301684FF0000B0291B5
:1013A000002441688068039000200E93CDE90B83F0
:1013B000CDE9098A01910490002C40F091800598B4
:1013C000D84500EB0B0638BF00265AD3A8EB0B0517
:1013D000072D07D800218D4252D0705C0A283ED0DC
:1013E0000131F8E7F01C20F00300B04201D10024E5
:1013F00012E0841B3246AC4228BF2C460020214616
:101400002B4600F0ACFE02460B4611460A201A4657
:1014100000F094FE012822D0A5F10800844214D8DF
:10142000315981F00A32A2F1013222EA0101321966
:10143000526882F00A33A3F1013323EA0202114316
:1014400011F0803F01D10834E8E7A5424CD33119AF
:101450002A1B0A2000F072FE012811D1214401EB61
:101460000B0010F1010BAAD0C345A8D80599085C60
:101470009DF838108842A2D100245D465E4609E0FE
:10148000C346049860BBC2452AD00120554604904B
:10149000012446460398007838B101980422C368B5
:1014A0001449029879449847C0B90598B6EB0A02E6
:1014B00000EB0A0101D1002006E0501810F8010CE1
:1014C0000A38B0FA80F04009039B18700198C3688D
:1014D000029898470028AA463FF46EAF012000E02A
:1014E000002010B002F08DB82046294600F046FEDC
:1014F000FEDE00BF673A0000E0B502AF002280299F
:10150000019203D28DF80410012230E002220B4632
:1015100062F39F13B1F5006F05D28DF80530C0233B
:1015200043EA911121E0B1F5803F0DD28DF80630EC
:10153000E02343EA1133890962F39F118DF80430E7
:101540008DF80510032212E08DF807308B0962F345
:101550009F138DF806300B0B890C62F39F131E222C
:1015600062F3DF0104228DF805308DF8041001A923
:10157000FFF702FF8CBDD4D4F0B503AF4DF804BD26
:1015800088B0019002AA91E87850104680E878501F
:1015900001A80449794400F049FA08B05DF804BB99
:1015A000F0BD00BFAC3900000068FFF7E5BE006881
:1015B000FFF7A2BFF0B503AF4DF8048D86B0006809
:1015C000EC4691E874416346614683E87441FFF755
:1015D000D3FF06B05DF8048BF0BD80B56F46FFF712
:1015E000A3FDFEDE80B56F46FFF7F7FFFEDED4D425
:1015F000DFB506AF0C460190D1E906010D22CB689C
:101600000B497944984700218DF80C008DF80D1096
:101610000422029407487844009002A8064901ABCE
:101620007944FFF7F5FDFFF783FE04B0D0BD00BF9E
:101630005639000023000000FF38000000680078E1
:10164000DFE800F0030A11181F00D1E906010522A6
:10165000CB680F4979441847D1E906010C22CB68C1
:101660000C4979441847D1E906010B22CB680A4995
:1016700079441847D1E906010B22CB680749794420
:101680001847D1E906010422CB6805497944184777
:10169000333900001939000000390000E738000034
:1016A00087380000E0B502AF006802786AB1013007
:1016B00001900B48784400900A4A01AB08467A44EE
:1016C0001146042200F088FC8CBDD1E906010422F9
:1016D000CB680549794402B0BDE88040184700BF97
:1016E000090A00005138000057380000F0B503AF78
:1016F0002DE9000D8CB0284BA7F13F0E8C4600243D
:101700007B4442F20F7842F2107A4FF0640B40456E
:1017100014D9B0FBFAF50EEB040105FB1A00043CEA
:10172000B0FBFBF606FB1B0033F81620A1F82320C4
:1017300033F81000A1F825002846E8E763280ED901
:1017400082B26425B2FBF5F00EEB040100FB15221A
:1017500033F81220A1F8252004F1250201E004F15C
:1017600027020A2804D2013A30300EF8020004E0C1
:1017700033F81000023A2EF80200C2F12700009060
:1017800006490EEB020360460022794400F00AFA93
:101790000CB0BDE8000DF0BD43370000F23F000083
:1017A0000068FFF7A3BF80B56F46FFF716FFFEDEA8
:1017B000D0B502AF0C46994201BF11462246BDE8A2
:1017C000D04003F0D1B92046194600F001F8FEDE02
:1017D00080B56F46FFF701FFFEDED4D4D0B502AF6F
:1017E00086B0029004300C460390D1E9060109222C
:1017F000CB6810497944984700218DF814008DF882
:1018000015100B2204940C487844009004A80B494E
:1018100002AB7944FFF7FCFC0949092279440091A5
:10182000084903AB7944FFF7F3FCFFF781FD06B0ED
:10183000D0BD00BF9B37000099080000863700002C
:1018400085FEFFFF7F370000F0B503AF2DE9000DE7
:10185000D41F4FF00003864638BF1C46C81C20F03A
:101860000300A0EB01085F4878448246934280F071
:101870009C80C85C46B2002E08D418F1010003D049
:10188000A8EB0300800714D00133EFE755461AF8A0
:101890000050042D24D0032D2ED0022D40F08B803B
:1018A000581C904280F085800D5615F1410F7ADD6D
:1018B00081E01E46A64208D28B1988595B681843FE
:1018C00010F0803F01D10836F4E71346964288BFF6
:1018D00033469642CAD2885700281AD40136F8E710
:1018E0005D1C954265D24D57F02814D0F42818D1CC
:1018F00015F1710F24DD5EE05D1C954259D24D5DFE
:10190000E0282CD0ED282FD168B210F1600F43DB16
:1019100051E03346AAE705F17000C0B230280FD37A
:1019200049E006F10F004FF0010CC0B2022844D884
:10193000B5F1FF3F41DC15F1400F4FF0010645D2F4
:10194000981C904235D2085610F1410F37DCD81C54
:1019500090422ED20D5615F1410F24DD33E005F0F3
:10196000E000A02818D026E006F11F00C0B20C2825
:1019700004D268B210F1410F0EDD1CE026F0010028
:101980004FF0010C123018D168B2B0F1FF3F14DCF7
:10199000C02D4FF0010619D2981C904209D20D5665
:1019A00015F1410F0BDC431C60E70020CEE901126A
:1019B00013E000260AE04FF0010C012606E00126A4
:1019C0004FF0020C02E001264FF0030C5FFA8CF09E
:1019D00046EA0020CEE901300120CEF80000BDE843
:1019E000000DF0BD443700000246002039B112F965
:1019F000013B13F1410FC8BF01300139F6E77047D1
:101A0000D0B502AF9A4221BFD21A01EB830480E81D
:101A10001A00C26028BFD0BD024823217844FFF7D6
:101A2000E1FDFEDE503B00000068FEE7F0B503AFCD
:101A30002DE9000D8AB0934603228DF82420202240
:101A4000DBF8088002920022B8F1000F0192CDE984
:101A50000701059203923BD0DBF80C0000244501FE
:101A600020F078400090002D52D0DBF800000119E2
:101A70004A6822B1015901F0FFFD002858D1D8E988
:101A8000010108F1200ADBF81060029098F81C00B0
:101A9000019108F114018DF82400304600F04EF851
:101AA000CDE9030108F10C01304600F047F8CDE91B
:101AB0000501D8F8001056F8310006EBC1014A685C
:101AC00001A990470834203D0028D046CBD02FE014
:101AD000DBE904500DF104084FEAC00A002620F0AB
:101AE00060400090B24513D0DBF8000081194A68CD
:101AF0001AB1815901F0C0FDD0B9D5E900024146C3
:101B000005F108049047083625460028EAD00FE082
:101B1000DBF80400009981420CD2DBF80000009A47
:101B200050F8321000EBC200426801F0A5FD08B188
:101B3000012000E000200AB001F063BD0A685AB13C
:101B4000012A07D1496800EBC1025268064B7B4469
:101B50009A4203D000207047081D01E050F8310080
:101B600001680120704700BFD7FEFFFFF0B503AF4B
:101B70002DE9000D9A461646884604460025A845DC
:101B800009D0DAF810203046214690470135002868
:101B9000F5D0691E00E041460020414538BF0120D4
:101BA00001F02FBDF0B503AF2DE9FF0D04688B46A2
:101BB000B968064614F001004FF02B0500EB010A4E
:101BC00008BF4FF488156007CDE90513079202D4CA
:101BD0004FF0000B05E00BEB0201584600F07FF8D8
:101BE0008244B06840B3D6F80C80D04524D9200791
:101BF0003DD401F01CFDB0F5881F2AD0D6E9068639
:101C0000824607980C460090314640462A465B467D
:101C100000F0EEF8E0B9F3684046DDE905219847A9
:101C2000B0B9504621464246334608B0BDE8000DE3
:101C3000BDE8F040FFF79ABFD6F818802A46F6694B
:101C40005B46079800904046314600F0D1F820B13D
:101C50000124204608B001F0D4BCF3684046DDE919
:101C6000052108B0BDE8000DBDE8F04018477068D8
:101C700001240390302070605B4696F82000D6E97E
:101C800006210290079886F820400090104607929F
:101C90002A46049100F0ACF80028DAD101F0C7FC24
:101CA000B0F5881FD5D0DDF810A08846079C054602
:101CB000DDE90521DAF80C30204698470028C7D125
:101CC0002846414622465346FFF750FF0028BFD121
:101CD0000298002486F8200003987060B9E7F0B5F8
:101CE00003AF2DE9F00D091A10296BD3C21C22F0A5
:101CF0000302121A914265D38B1A5FEA930861D0EE
:101D0000042A5FD800EB020B23F003010BEB010A5E
:101D1000114603F00305FFF767FE044650462946C7
:101D2000FFF762FE0444B8F1000F5DD06D464346F4
:101D3000284659464246B8F1C00F28BFC023FFF7D6
:101D40005FFE9DE8060822F003032846DDF80C80BC
:101D5000FFF756FEDDE900210023DDE902EC02EB8E
:101D60008106B24211D0002104290CD052F8210082
:101D700001316FEA000A4FEADA1545EA901020F0C7
:101D8000FE300344F0E71032EBE74FF0FF1000EABB
:101D9000132123F0FF22BCF1000F114401EB01419C
:101DA00004EB1144BFD04FEA8C0200218AB15EF8E7
:101DB000040B043AC343DB0943EA901020F0FE30E1
:101DC0000144F3E704B0BDE8000DBDE8F040FFF7C3
:101DD0000BBE4FF0FF1000EA112021F0FF21084454
:101DE00000EB004004EB1044204604B001F009BCB5
:101DF000F0B503AF4DF8048DD7F808801C460D46AA
:101E00000646B2F5881F06D02B6930461146984722
:101E100008B101200AE044B1EB6830462146424651
:101E20005DF8048BBDE8F040184700205DF8048B96
:101E3000F0BDD4D4F0B503AF2DE9000D90F82030FB
:101E40008846032B18BF1A46D2B2DFE802F00A0216
:101E500006024FF000080A4603E04A0801314FEA43
:101E60005108D0F804A0541CD0E90665013C07D005
:101E70002A693046514690470028F7D04FF4881A17
:101E800050464146BDE8000DF0BDF0B503AF2DE969
:101E9000000DD0F808C08046006993468A46BCF120
:101EA000010F01D110B94DE000286AD0D8F8140014
:101EB0000AEB0B0600225446431CB44224D02146B0
:101EC00011F9015BE8B2B5F1FF3F29DC657800F05C
:101ED0001F0EDF2805F03F051BD9A178F02801F07F
:101EE0003F0141EA851518D3E0780EF0070100F0B4
:101EF0003F0040EA851040EA8140211DB0F5881F6F
:101F00000ED14FF4881002E04FF488103146154688
:101F100008E045EA8E10A11C02E045EA0E30E11C03
:101F2000141B6518013B05D0B0F5881F0C462A46E6
:101F3000C3D102E0B0F5881F32D15A46BCF1000F80
:101F400025D093460AEB0B015046D8F80C40FFF71A
:101F5000C6FE844215D9211A40460022FFF76AFFC7
:101F6000B0F5881F0AD0D8E906680446D8F80C30C6
:101F70000D4651465A4630469847D8B1012001F0E7
:101F800040BBD8F81C105A46D8F8180001E0D8E930
:101F90000601CB685146BDE8000DBDE8F04018478A
:101FA0009AB15A4510D21AF9020010F1400F0CDA1A
:101FB00000200BE02946204632464346BDE8000D8E
:101FC000BDE8F040FFF7D2BDF2D1504600280CBF6B
:101FD0005A468246B2E7D4D4F0B503AF2DE9000DDE
:101FE0008EB0D0E9066B0446DBF80CA01D463046E7
:101FF000D04720B1012528460EB001F002BBD4F82D
:10200000008000955FEA48700CD4214930460122D7
:1020100001257944D0470028EDD100982146BA68BF
:1020200090472AE01C49304602227944D0470125D6
:102030000028E0D107F83D5CA7F13D000390251D85
:10204000CDE9016BCDF81480144878440C9001A8B8
:102050000B9094F820008DF834002FCD06AE2FC6DB
:1020600005A90098BA6890470028C3D1DDE90B01A3
:102070000222CB680A49794498470028BAD1D4E9AA
:1020800006010122CB680349794498470546B2E727
:102090002C2F0000042F0000122F000062300000DF
:1020A000BC2E00000A680068D30644BF0068FFF732
:1020B0004DB8920658BFFFF773BB0068FFF768B8CA
:1020C000B0B502AFA2B00C4609680068CA0608D4D1
:1020D000890615D40078214622B0BDE8B040FFF74C
:1020E00005BB017802AA7F2001F00F0357250A2BB8
:1020F00038BF30252B44135401380909F4D10DE0C1
:10210000017802AA7F2001F00F0337250A2B38BF80
:1021100030252B44135401380909F4D1411C02A87D
:10212000FFF707F80091034603492046022279444D
:10213000FFF738FD22B0B0BD132D0000D0B502AFBF
:10214000C0B200239A4204D0CC5C844203D0013355
:10215000F8E7002001E001201A461146D0BD80B505
:102160006F46814207D399429FBF0244091A104625
:1021700080BD0846194600F001F8FEDE80B56F46C6
:1021800000F001F8FEDE80B56F46FFF726FAFEDEAE
:10219000E0B502AFBC68009400F002F8FEDED4D4D3
:1021A000E0B502AF16464FF4807298460C460546DD
:1021B00000F066F8D7F808A040B9A64203D8A045B9
:1021C00098BF464513D9FFF708FAFEDE0346A04242
:1021D00004D2E85610F1410FEFDC00E0EDD02846C4
:1021E00021460022CDF800A0FFF7D2FFFEDE7EB927
:1021F000464628462146324600F042F8024670B96B
:10220000A24213D11D482B217844FFF7EBF9FEDEE3
:10221000A6422BD2A85710F1400FE9DAE9E7A24213
:1022200026D2A85610F1410FEADC22E0A81890F956
:102230000010B1F1FF3FC6DCC9B2E02928BFF02988
:10224000C1D3427801F007018378C07802F03F02E1
:1022500003F03F03120300F03F0042EA83121044F0
:1022600040EA8140B0F5881FADD1CBE7C0D0C0E7D0
:10227000C6D0284621462346B4E700BF8733000076
:102280000B46914214D9B0B502AFD41E054638BFF3
:102290000024511C20462A46FFF761FF013821B176
:1022A0004256013912F1400FF9DB0B19BDE8B0407D
:1022B00018467047F0B503AF4DF8048D90B08046D6
:1022C0005000402801D901202AE06C460E462046E5
:1022D0004021154602F078FC00204FF0570CC5B1A4
:1022E0003F2823D816F8012B11090CEB1213A02A52
:1022F00038BF01F1300302F00F0101F157020A2942
:10230000235438BF01F130022118013D02304A70D8
:10231000E5E708F101006946402202F025FC0020B3
:1023200088F8000010B05DF8048BF0BD4021FFF785
:102330004FFAFEDEE0B502AF0A7832B90131402231
:1023400002B0BDE8804002F00FBC044801A9044A75
:1023500078447A44FFF727FAFEDE00BF6A320000B5
:10236000862D0000E0B502AF016819B9D0E901215E
:1023700010468CBD03486946034A78447A44FFF707
:1023800012FAFEDE403200004C2D0000DCB504AF36
:10239000934210D342B18A4204D2845614F1400FC2
:1023A00002DA08E0914206D163B18B4208D2C456EA
:1023B00014F1410F06DCBC680094FFF7E9FEFEDE75
:1023C0009942F8D11044991ADCBD80B56F4693420A
:1023D00008D38B429EBF1044991A80BD1846FFF760
:1023E000CDFEFEDE10461946F9E7D4D40846024970
:1023F00002227944FFF749BDD22C0000F0B503AFAB
:102400002DE9000D8246002000218AF818000629D7
:1024100003D04AF821000131F9E700208AF85D0372
:102420000AF1190000F040FB21490AF25B150AF19C
:1024300039000124794402268B4600F035FBB6B101
:10244000A5F16100D846D847002005F8410CA5F158
:102450004000D847A5F12000D8472846D847A120FA
:10246000013E04FB00A0A1350134DA30E5E70AF5AE
:102470000F70D8470AF51770D8470AF51F70D8476C
:102480000AF52770D8470AF52F70D8470AF5377034
:10249000D8470AF53F70D8470AF54770D8470AF57C
:1024A0004F70D84700208AF85C03BDE8000DF0BDEE
:1024B00071060000F0B503AF4DF8048D88B06E468C
:1024C0000D46804630462021144602F07DFB304602
:1024D00020212A462346FFF76BF940463146202249
:1024E00002F042FB08B05DF8048BF0BDB0B502AF5E
:1024F00088B000F1080400200021202902D0605497
:102500000131FAE76D4621462846202202F02CFBD5
:1025100020462946202202F027FB08B0B0BDD4D4C3
:10252000F0B503AF2DE9000DBCB080461BA84146B5
:1025300000F0F6FA1C9808F5377A212801D2032614
:1025400007E0302801D8042603E00926412838BFD7
:10255000052629AC48214825204602F035FB0020FD
:102560003B95259025A820223BA9CDE900243246A1
:10257000CDE902101BA840F20161534602F0C2FAF5
:1025800010B14FF602745DE009AC29A9482220463B
:1025900002F0ECFA25982146089029AD48222846F9
:1025A00002F0E4FA9DF8A400302853D19DF8A5006C
:1025B000063840284ED89DF8A60002284AD19DF83A
:1025C000A7A0AAF10100202844D80AF10406284651
:1025D0000421324600F04AF8CDE90610A85D022831
:1025E00038D10AEB05000AF1060108F54F7608F527
:1025F000477490F805B0284601EB0B0200F036F85E
:1026000005462046059100F04FFACAF12001204608
:1026100000F03DF8DDE90632FFF7CAF8304600F079
:1026200043FACBF12001304600F031F8059B2A46F1
:10263000FFF7BEF8089800F0010088F85C036FF01F
:10264000FD00441C1BA8FFF751FF20463CB0BDE82D
:10265000000DF0BD034825A9034A78447A44FFF7EA
:10266000A2F8FEDE602F0000282D000080B56F4626
:102670008A4209D3482A9EBF0844511A80BD104699
:102680004821FFF77BFDFEDE08461146F9E72129C8
:102690003EBF0844C1F12001704780B56F4608462F
:1026A0002021FFF76BFDFEDE7047D4D4B0B502AF3A
:1026B00086B00C460178DFE801F0040F171F2A38B6
:1026C000420001300490354810227844009034498B
:1026D00004AB2046794424E001300490314878442A
:1026E0000090314979440EE0043004902F4878443A
:1026F00000902F49794411E0013004902D4878442E
:1027000000902D49794404AB20460E2209E00430A4
:1027100004902A48784400902949794404AB204623
:102720000B22FFF759FC06B0B0BDD4E90601082220
:10273000CB682449794406B0BDE8B0401847011D74
:10274000019100F108010C30029111220390D4E9AB
:102750000601CB681C497944984700218DF8140084
:102760008DF8151003220494184C7C44009404A89E
:10277000174901AB174D79447D44A84700940722BF
:10278000154902AB7944A84700940322134903ABCF
:102790007944A847FEF7CCFDC5E700BFF3F9FFFF7A
:1027A000452D0000DFF9FFFF272D0000B3F9FFFFE3
:1027B0000C2D0000BFF9FFFFEE2C00008DF9FFFF8C
:1027C000CD2C0000822A0000732C000037F9FFFF97
:1027D000642C000095EAFFFF592C0000542C0000E7
:1027E000B0B502AF436802464FF60170182B14D102
:1027F00013680024142C04D01D592DBA0D51043433
:10280000F8E704252344C2E900356FF0FF030968A7
:10281000024A914208BF831C1846B0BD550A008089
:102820000088B0F57F4F0AD04FF6017290420DD16B
:10283000D1E906011622CB680A4979441847D1E943
:1028400006011622CB68064979441847D1E90601EA
:102850000922CB6801497944184700BF3E2B00008C
:102860006B2B0000632B0000F0B503AF2DE9000DCA
:10287000A0B00D460446202000214FF0000B02F0CE
:102880000BF8CDE906BB0DF12008CDE904BB2022F1
:10289000234E40467E44314602F066F90DF1400A6F
:1028A00006F120012022504602F05EF904AE5121CB
:1028B000304602F045F82020414600903046202264
:1028C000534602F051F81F20691CCDE90010611C2D
:1028D000CDE9020B30461F221F2300F023F8012010
:1028E0002146CDE900500122CDE902003046012306
:1028F00000F018F818AD2021284602F065F92020D4
:1029000021460090304620222B4602F03DF830460A
:1029100002F020F801F0CAFF20B0BDE8000DF0BDC4
:10292000982B0000F0B503AF2DE9000DC2B0059063
:102930000C4604931646564920227869794401EBE7
:10294000801506A8294602F00FF90DF1380B05F1A4
:1029500020012022584602F007F90DF1580A4FF0E5
:1029600000085121CDE918885046CDE9168801F0BC
:10297000E7FF20202022009006A950465B4601F088
:10298000F3FF0DF1680A05F180012022504602F0A4
:10299000EBF80DF1880B05F1A0012022584602F05A
:1029A000E3F8CDE92C885121CDE92A882AAD2846C3
:1029B00001F0C6FF202051460090284620225B46A9
:1029C00001F0D2FF2EA800F040FE36A800F03DFE38
:1029D0003D69D7E902BA4046464504D0215C00F182
:1029E00001080029F7D000218A452ED01BF80120CC
:1029F0000131002AF8D0864233D000F037FE0DF1C5
:102A0000B8080246A8EB040000F03AFE00F03DFED4
:102A100036AE00F005FE00205121CDE94000CDE9A1
:102A20003E003EAC204601F08BFF20204346CDE91E
:102A30000006029016A92AAA204601F0CDFF00F058
:102A40002EFE204601F086FF18E0864216D000F0E8
:102A50000DFE2EAD0246281B00F012FE16AC2946D4
:102A600006E000F012FE36AE00F0DAFD2AAC314688
:102A70002046202201F0A4FF00F011FE16A801F06C
:102A800069FF2AA801F066FF42B0BDE8000DF0BD65
:102A9000302B00008A429CBF1146704780B56F46BC
:102AA0001046FFF76BFBFEDE00210022202A08BF44
:102AB000704781540132F9E7D0B502AF9A4221BF85
:102AC000D21ACC1880E81A00C26028BFD0BD0348D3
:102AD00023217844FEF786FDFEDE00BF9A2A00001F
:102AE00080B56F46C0B201F09BFFFEF776FDFEDEBB
:102AF000B0B502AF90B0044600200021402902D0BA
:102B000060540131FAE76D4621462846402202F022
:102B10002BF820462946402202F026F810B0B0BD1E
:102B2000F0B503AF2DE9000D92B000F108040E4698
:102B30000546202120464FF0200802F045F8C5F850
:102B400004800DF10408512040212870404602F015
:102B50003BF800252120314606224346009501F02E
:102B60004FFF11950DF1440A114E7E44404621213C
:102B7000224620238DF8245001F0D3FF2046314611
:102B80002022534601F0D7FF11980135B0F1FF3FE5
:102B9000ECDC084A2046202120237A4401F0D0FFB3
:102BA00001A8FFF7A5FF12B0BDE8000DF0BD00BF02
:102BB0008E2A00007E2A0000F0B503AF4DF8048D88
:102BC000A2B0804600F0FCF808B900F003F901AEAD
:102BD0008021304601F0F8FF08F1080500F0F0F818
:102BE00038B33046802100F0E7F89DF80400BDF8C6
:102BF000054000F0D3F8C0B20F2811D016280AD033
:102C00001028EBD120BA000C0228E7D9284631461B
:102C100000F02CF9E2E72846314600F061F9DDE7E3
:102C2000A0B2B0F5807FD9D19DF8070000F0E4F89C
:102C3000D4E7194E19F8060007281CD00A2821D11C
:102C4000B8F80400532107F8131C00BA010E000C59
:102C500007F8120CA7F1130007F8111C032101F06B
:102C6000EBFED8F8041000202A4600F019F889B2CB
:102C700001F0E2FE06E0B8F804102A46074878445E
:102C800000F024FF002009F80600C8E9000022B087
:102C90005DF8048BF0BD00BF000000009B0B00003E
:102CA00080B56F46814209D3B1F5827F9FBF024450
:102CB000091A104680BD08464FF48271FFF75EFA8C
:102CC000FEDE80B56F4642689308402B9FBF0244EA
:102CD0000B0A137242689CBF0132B2F5827F3FBF7C
:102CE00002441172416802313EBF4160BDE880403C
:102CF000FFF762BF10464FF48271FEF769FDFEDEFA
:102D00000B68042B05D10D4A002141607A44026012
:102D100070470A7B12B1052300F012B8052BF2D0E0
:102D2000062B05D10021016046F6016181807047C4
:102D3000B1F80D20072300F003B800BF702A00008F
:102D4000B0B502AF04461AB108689D18854205D98E
:102D50000020206046F60160A080B0BD01F10802AD
:102D600018462946FFF79CFFC4E90001B0BDD0B565
:102D700002AF62B143689C08402C09D8034411F8A3
:102D8000014B013A1C72436801334360F1E7D0BD47
:102D900018464FF48271FEF71BFDFEDE0138C1B20A
:102DA000172984BFFF207047024940B27944085C6C
:102DB000704700BF303B000089B2002201F04EBED8
:102DC00080B56F4601F042FE0138B0FA80F040094C
:102DD00080BDD4D4E0B502AFFFF7F2FF48B90020C0
:102DE000052107F8010C034847F8050C781F01F08E
:102DF00023FE8CBD60000200D0B502AFFFF7CEFF0E
:102E0000C0B20138072814D8DFE800F00414131A00
:102E1000131313201348012109EB0004204601F08D
:102E200003F8204600F0E7FF0F4809EB000189791D
:102E300091B1D0BD0B484844BDE8D04000F0FBBF85
:102E400008484844BDE8D04000F0F1BF0548484478
:102E5000BDE8D04000F0EDBF484412210C3001F035
:102E6000B3FED0BD7400000000000000DCB504AF6C
:102E70000A79012A1AD0CB78022A03F07F041CD0E9
:102E8000042A28D1052C26D8134A00904A44134816
:102E900022444B79484413734FF48272ADF80420F6
:102EA0008A1D6B46214600F0F0FEDCBD0B48063162
:102EB0004844BDE8DC4000F0BDBE062C0BD20648FD
:102EC0000022484400EB440042828A1D0348214608
:102ED000484400F027FFDCBD000000007400000043
:102EE000B0B502AF0C4A19F8023003B1B0BD0A23E5
:102EF00009F802304A4406239371B1F801301CBA34
:102F00007D23250C7D2D38BF230C5380CA1C194608
:102F1000BDE8B040FEF74CBC00000000024600785F
:102F200040EA0103C9B2137018B171B103290AD084
:102F300014E0032912D80020DFE801F0020F120587
:102F4000002010700AE00220704700210328117051
:102F500004D80449C00021FA00F0704706207047E9
:102F60000120704706030405B0B502AF0446FFF721
:102F700027FF08B9FFF72EFF651CFFF721FF68B197
:102F800028460421FFF718FF28780528F5D1207975
:102F900041082046BDE8B040FFF7C0BF0620B0BDE5
:102FA000BCB504AF0C46054601F076FD0020214675
:102FB000CDF801008DF80000284600F00BF86C46B3
:102FC0002046FFF7D1FFC0B20628F9D00338022807
:102FD000F6D8BCBDBCB504AF0C46054601F05CFD9F
:102FE00000200221CDE9001028462146012200F0F0
:102FF000B1F9BCBDD0B502AF044601F04DFD20468D
:1030000000F06EFA0548784400F02DFA0448784440
:1030100000F029FABDE8D04001F046BD922600003C
:1030200092260000F0B503AF2DE9F00D824601F0C5
:1030300033FDDAF804000DF1040851460022023095
:1030400001904046002500F049F8CDF809508DF870
:10305000085002AE1F48204C78447C4483463046DA
:10306000FFF782FFC0B20628F9D00528F7D8DFE8BD
:1030700000F004080319200CF1E7584600F04BFA61
:10308000EDE7204600F047FAE9E70199881E8542FE
:103090001CBF01398D4215D0404651462A4600F0EA
:1030A0001DF8DCE7584600F0FBF9002D18BF013D84
:1030B000F2E7204600F0F4F901980138854238BF64
:1030C0000135E9E7281AB0FA80F0400904B000F0B1
:1030D00098BA00BF8026000062260000F0B503AF5A
:1030E0004DF804BD82B014460D46064601F0D4FCEE
:1030F0003068811EA14208D1D5E9022319487844DD
:10310000D0E9000100F036F818E00138A04208D1FB
:10311000D5E9042315487844D0E9000100F02AF8E5
:1031200010E06968A14219D929680022022351F8E8
:10313000340001EBC401496800F0ACFA0A48784455
:1031400000F091F91CB10A48784400F08CF902B003
:103150005DF804BBBDE8F04001F0A6BC2046FEF7D8
:1031600037FBFEDE2E260000F62500005626000066
:103170002C260000F0B503AF2DE9F00D0290080CED
:10318000ADF80E001220002B08BF3C20ADF80C005B
:1031900002A81D46144600F066F93DB1012D08D184
:1031A000D4E900010022022300F074FABDE80F0DFB
:1031B000F0BD01201C2200F0C3F905464FF00008C5
:1031C0004FF0020A0026022EF0D004EBC60154F89C
:1031D0003600032249682B46CDE900A800F0BAF872
:1031E00010350136EFE7D4D4F0B503AF2DE9FC0D6F
:1031F0000A46102101EB0213D0E900818B420E46F2
:1032000038BF1E461501B6EB021F059268D34DB1BB
:103210008D4205D218F9052012F1400F02DA5FE065
:10322000A9425DD136B1994204D918F9062012F1AC
:10323000410F55DDD0F808B04FF4597104909BF858
:1032400010202D48002A784402FB010ADBE9000126
:1032500018BF012200F058F804469BF811002146DF
:10326000CDF80C8000F05FF99AF860A38046DBE9A6
:103270000201524600F064F9204A01464FF4806092
:1032800000237A4402904046CDE90032224653465C
:1032900000F0C4F8059C701B03992944CBE9001089
:1032A0001CB11848784400F0DEF80499601CC96825
:1032B0000968884203D21248784400F0D4F89BE8A9
:1032C0000F009BF810509BF81140CDE9004500F02D
:1032D00041F806B0BDE8000DBDE8F04001F0E4BBE8
:1032E00004482A463346784400904046FEF750FF93
:1032F000FEDE00BF96240000CE2B00005A320000F4
:103300007C240000D0240000F0B503AF4DF8048DFC
:1033100006460F480C464FF459717844002502FBCD
:1033200001086CB1304600F0F5FB007820386028C9
:103330000AD24044013C013690F800030544F0E70E
:1033400028465DF8048BF0BD6021FEF741FAFEDEF1
:10335000FA2A0000F0B503AF2DE9000D8CB0FC682F
:103360000D46CDE9072306462246FFF7CDFF01466D
:10337000B86800F0D8F8804627484FF4597178446F
:1033800004FB01000690DDF818B000F558700590B8
:10339000B5B3304600F0BEFB0078A0F120045F2CEE
:1033A00034D85BF8340000F0B5FB099646468046F9
:1033B000059890F800A0DDE90701524600F0C0F83A
:1033C000014600200A900BEBC40001220223406852
:1033D0000B92C00000930AAB04900BEB0400CDF8F5
:1033E0000C80B046CDE9013290F800434046534688
:1033F000099E224601F060FBA044013D0136C7E76B
:1034000001F052FB0CB0BDE8000DF0BD204660217C
:10341000FEF7DEF9FEDE00BF962A0000F0B503AF2E
:103420004DF8048D88B00446B8680690984680F040
:1034300001000790F86815460E4600F06BFB3969ED
:1034400006AB02224FF0010CC9008DE80C102A4691
:10345000CDE9030120463146434601F02DFB08B07B
:103460005DF8048BF0BDF0B503AF4DF804BD84B03A
:103470000446006800F04EFBB4F904C0B4F906102D
:10348000D0E90065D0E90223047C6046CDE900461E
:103490000295FFF7C3FF04B05DF804BBF0BDD4D4C0
:1034A000F0B503AF4DF804BD84B00446006800F0E9
:1034B00031FBD0E90223B4F90450B4F906104FF4FB
:1034C0008064007C054E02947E44CDE900062846C7
:1034D000FFF7A4FF04B05DF804BBF0BD143000009A
:1034E000F0B503AF4DF804BD82B000F110050A2419
:1034F00002264A2C0BD02A78234655E90401CDE94F
:1035000000620322FFF726FF14352034F1E702B0F2
:103510005DF804BBF0BD80B56F46FFF7A4FFBDE8C2
:10352000804001F0C1BAC0B238B101280EBFC1F16C
:103530007E00C1F180004008704702207047D4D45B
:10354000DFE800F00A020609C2F1400040087047B7
:10355000C2F140007047084670471B9847F8800C3E
:10356000012047F83C0C47E91101A7F1800047F81A
:10357000480C052047E91460062047F8740C1E9893
:1035800047F8780CA7F15000FFF74CBD009020469B
:103590004047CDF878051598CDF874051698CDF804
:1035A00070051798CDF86C051898CDF8680519982E
:1035B000CDF8640570470398CDF874051598CDF8DB
:1035C00070051698CDF86C051798CDF86805189811
:1035D000CDF8640519987047A7F150053146284683
:1035E000FEF7A8BE0090204610230D464047304607
:1035F00021464022FEF728B929464022204601F004
:10360000B3BABDE8000DF0BDCDF87C15A7F1780187
:10361000CDF85C057047229A304641462023284762
:103620000246701B0B4620302946FEF7C1B8A8EBB6
:103630000A01304601220124FEF7FCBB3046FEF7AA
:1036400091BE30462022FEF735BE202101F0BCBAE3
:1036500051468DF8BC013046FFF752BB9DF800057E
:1036600031468DF858055046012270472046049C8B
:1036700031462246FFF70EBADDE90703DB6818473B
:103680000B4620302146FEF793B8584651462A464D
:10369000FFF700BACDE900320122FFF75BBE0598C3
:1036A0002246014601F080B9039129461590302247
:1036B0007047DDF850800022704750462022204796
:1036C000044601F0D7F9214600F05CF82DE9F041FD
:1036D0008CB0002462B6204601F0D4F9DFF888806F
:1036E0006D4620260127284600F040F8ADF82C0052
:1036F00080B2052823D040BB284601F0C3F90A90C8
:1037000001F0C0F80D282AD209EB0800314601F07B
:103710005BFA00F053F9204601F00CF8384601F04E
:1037200009F8FCF7D3FC01F0A5F9A84204BF0A98F8
:1037300001F0A8F9BDF82C000028D4D012E00A98B6
:10374000ADF82C4001F09EF9CDE70A980024ADF8C1
:103750002C4001F097F920460CB0BDE8F081FF2025
:1037600001F05EF9FFF7ACFF00000000F0C0414639
:103770004A4653465C466D4676467EC02838F0C8B9
:103780000020704710307CC890469946A246AB4650
:10379000B54608C82838F0C8081C00D101201847D1
:1037A00000F07F00052884BF00207047024949448B
:1037B0000844007B704700BF00000000FF2A29D8A2
:1037C0007CB5044620208DF8060050208DF80200BC
:1037D00044F080008DF80500D01C8DF80400000A2C
:1037E0008DF803000DF102000E46062115468DF8F6
:1037F000072001F021F93046294601F01DF906485D
:1038000004F07F01484400EB41004FF4FA6141822B
:10381000BDE87C40704700BF000000000A4601463A
:103820008220FFF7CBBFD4D42DE9FC4DDFF874B173
:103830008246B3F804800F4609EB0B001968154661
:10384000874201910ED009EB0B044021402620460F
:1038500001F0BFF9402D38BF2E462046394632468A
:1038600001F086F909EB0B00807848B3012833D0CA
:10387000022839D0052840F08D804B4C09EB0B0114
:1038800059F80400CA78097941EA022188422FD107
:1038900059F80400D0B34549681F83B259F8012094
:1038A0009A4238BF59F8010081B23B2928BF3B201A
:1038B00085B23F4809EB0B01053159F8000055E08E
:1038C00009EB0B0000240146047101F8034FCC7092
:1038D0008C704021D0470CE009EB0B040421E01C64
:1038E00001F033F9204601E009EB0B004021D047FD
:1038F00000242D48002149F800102D4849F80010F7
:103900002A4849F800102046BDE8FC8D09EB0B0061
:103910004179807940EA0121264849F8001059F898
:1039200000104145E4D8214E09EB0B0259F8001074
:1039300049F8061019F80B10527842EA01211E4A84
:1039400049F802101A49019849F80100E91F8BB2A1
:1039500059F806209A4238BF59F806108AB2392A17
:1039600028BF39218DB209EB0B0107312A4601F03E
:10397000FFF80E4859F80010491B49F800100C4890
:1039800059F80010294449F8001059F80400013092
:1039900049F80400054859F8000008B10124B2E7CD
:1039A0000224A6E72000000060000000680000007C
:1039B0006C00000064000000700000000548002159
:1039C00049F80010044849F80010044849F800106C
:1039D000704700BF600000006C000000680000003D
:1039E0002DE9F04DDFF8CCA0334F59F80A4059F8D3
:1039F000071051B34CB3DFF8CC8083463B2109EB71
:103A00000805681D01F0E5F82F482C4E59F8001004
:103A1000090A09F808100521A97059F80000687012
:103A200059F80600000AE87059F80600287159F89C
:103A3000061059F80700A9B13B2809EB080094BF0C
:103A400059F807503B2505301BE01C48002149F878
:103A500000101B4849F80A1009F8001049F807102F
:103A6000BDE8F08D392894BF59F80750392559F829
:103A7000071009EB0800090A417159F80710817114
:103A8000073021462A4601F073F859F807005A46D4
:103A90004021401B49F80700601949F80A0059F80D
:103AA0000600013049F8060009EB0800BDE8F04DBA
:103AB000104700BF6C0000006800000060000000BC
:103AC00000000000200000007000000089B110B567
:103AD000084B002449F80340074B49F80310074BF3
:103AE00049F80320064A49F80210BDE81040FFF7E4
:103AF00077BF704760000000680000006C000000A5
:103B0000640000007A460249C91C891A401A7047AD
:103B1000053BDEC00A4A82420A4906D8814204D3E4
:103B200080B5FFF7EFFFBDE8804007498842074AAC
:103B300004D3904202D8401A49460844704700BF57
:103B40000000DEC0006ADEC000007ADA00787ADAAF
:103B500098B170B50E464FF48A711546044601F0CF
:103B600033F80EB1C4F8F0600120257084F8DC0051
:103B7000204600F08BF9002070BD02207047B0B5E0
:103B800004460120F42584F8DC00B5F5867F08D0D2
:103B9000605920B14068FFF7BDFF00F073F90835A8
:103BA000F3E7204600F0A4F9204600F07DF900205C
:103BB000B0BD3AB102289CBF01EBC000C0F8F420B0
:103BC000002070470220704780B500F075F9002092
:103BD00080BD70B50C4605460026032E11D0284640
:103BE000314600F087FA50B105EBC600D0F8F4007A
:103BF0000068FFF78FFF02462846214690470136AE
:103C0000EBE7002070BD70B50C4605460026032E7C
:103C10000ED02846314600F06DFA38B105EBC600EB
:103C200000F026F902462846214690470136EEE785
:103C3000002070BDB0B500F1E8050446284600F04C
:103C400068FCB4F8EE100120C4E9350194F8E800EE
:103C500000F01F01022907D001290AD071B92046BE
:103C6000294600F053FA0EE02046294600F0DCFB1E
:103C700009E02046294600F0BDFB04E000F0800189
:103C8000204600F071F90020B0BD2DE9F8459046BE
:103C90000446C9B19A460F460025032D3FD000F0D7
:103CA000E3F878B100F0E9F8806958B194F8DC10D5
:103CB000032907D1FFF72EFF064620463946424624
:103CC0005346B0470135E8E7D4F8D400032826D19D
:103CD000D4E91F1081420AD9091AE167814238BF2D
:103CE000084682B22046414600F061FC17E00025FC
:103CF000032D11D000F0B8F860B100F0BEF80069F3
:103D000040B194F8DC10032904D1FFF703FF01460A
:103D1000204688470135EBE7204600F04EFC0020A6
:103D2000BDE8F88570B50446D1B10D460026032ED6
:103D30005FD02046314600F0DDF978B104EBC600D3
:103D4000D0F8F400406948B194F8DC10032905D19B
:103D5000FFF7E0FE02462046294690470136E6E797
:103D6000D4F8D40002283DD1D4E9071081420BD900
:103D70000A1AD4F81011E26192B201442046C4F844
:103D8000101100F00AFC2DE0A169B1FBF0F202FB7A
:103D9000101272B981420CD3D4F8D800814208D2F3
:103DA000204600210022002500F0F7FBC4F8D8507F
:103DB00018E000252046032D12D0294600F09AF97C
:103DC00060B100F05AF8C06840B194F8DC100329E3
:103DD00004D1FFF79FFE0146204688470135E9E7F9
:103DE00000F0F6FB94F8E000012804BF002084F8FE
:103DF000E000002070BDB0B50446012084F8DC006E
:103E0000402000252062C4F88000032D0AD000F075
:103E10002BF828B104EBC50000F02AF800F032F8C6
:103E20000135F2E70020B0BD01740020704700208A
:103E3000704700207047B0B5044690F8DC000328B6
:103E400010D10025032D0DD000F00EF840B100F088
:103E500014F8C06920B1FFF75DFE0146204688478F
:103E60000135EFE70020B0BD2046294600F042B9F9
:103E7000D0F8F4004068FFF74DBE04EBC500D0F861
:103E8000F40070472179024620461047044800217B
:103E900049F80010034849F800100020704700BF9F
:103EA0008C01000088010000E0B500F0FDF801A8D9
:103EB00000F0C2FD00208CBD7CB503200DF1030491
:103EC0008DF80600022000258DF805004F262046BB
:103ED00005218DF8075000F007F9012004218DF825
:103EE00006008DF80500204600F0FEF800207CBD9D
:103EF000E0B500F0D9F801A800F09EFD00208CBDCF
:103F00001CB5174800248DF8051004218DF8031006
:103F1000052149F8004013488DF802104F218DF813
:103F2000064049F8004001208DF804008DF801405A
:103F30008DF8001052B1032A05D0022A05D0012ABB
:103F400006D1042002E0022000E003208DF80600E4
:103F5000684608218DF8073000F06EFD00201CBD7A
:103F6000880100008C0100001CB500200C46402197
:103F700000F0A8F80DF1020000F0AFF809492206A0
:103F8000074804F07F02494458BF09EB00010123B0
:103F9000086803FA02F21043086000201CBD00BF4D
:103FA0008C010000880100001CB500200C46802117
:103FB00000F088F80DF1020000F08FF809492206A0
:103FC000074804F07F02494458BF09EB0001012370
:103FD000086803FA02F29043086000201CBD00BF8D
:103FE0008C01000088010000084A0B06064801F019
:103FF0007F014A4458BF09EB00021078012202FAFF
:1040000001F10840704700BF8C01000088010000EA
:10401000E0B503208DF807108DF8060002208DF81A
:10402000050000208DF804004F208DF803000DF1ED
:104030000300052100F000FD00208CBDBCB5202050
:104040008DF805108DF8060050208DF80200D81C60
:104050008DF80400000A8DF803000DF1020006211E
:104060001C4615468DF8073000F0E6FC2846214630
:1040700000F0E2FC0020BCBDE0B530208DF805105A
:104080008DF8060003208DF8040000208DF8030051
:1040900050208DF802000DF1020006218DF8072056
:1040A00000F0CAFC00208CBD022004218DF807001E
:1040B00001208DF8060000208DF805004F208DF8B6
:1040C000040070478DF807008DF8030050208DF82C
:1040D000061003218DF8020070478DF804100621A8
:1040E0008DF8054000F0A8BC8DF804508DF80360F1
:1040F00000F0A2BC022984BF0020704700EBC10081
:10410000D0F8F400002818BF0120704780B54A7825
:1041100072B1012A0FD0032A10D0052A11D0092A22
:1041200012D0082A13D0062A14D100F017F813E091
:1041300000F0FCF810E000F036F90DE000F01AF99C
:104140000AE000F088F807E000F0A6F804E000F0CC
:10415000D9F801E000F04CF9002080BDBCB50D4657
:10416000498804460020ADF806000120B0EB112F6D
:1041700026D0080A02282ED003280AD0062831D0DB
:10418000072816D00F282FD1D4F8F000C069D0B975
:104190002AE0C8B205284AD001284CD002284ED0C7
:1041A000032850D0042852D0F0B9D4F8F000406869
:1041B00009E0207CC0B9D4F8F400A8B1006B1FE07E
:1041C000D4F8F0000068FFF7A5FC0246207C0DF152
:1041D000060190471AE0D4F8F40040B1217C71B197
:1041E000C06A0DE0207C20B100F0BCF9BCBD00210C
:1041F0000DE0D4F8F4000028F6D0406B00E0806AAF
:10420000FFF788FC01460DF1060088470146BDF81E
:1042100006000028EAD0EA88002AE7D0904238BF9A
:1042200002462046ADF8062000F0A6F9BCBDD4F841
:10423000F0008069C7E7D4F8F0008068C3E7D4F8DD
:10424000F000C068BFE7D4F8F0000069BBE7D4F81D
:10425000F0004069B7E7B0B50446888828B9C88837
:1042600018B994F8DC00032804D12046BDE8B0401A
:1042700000F0BEB8887800F07F05204684F8DE5054
:104280002946FFF7C5FE00F074F90DB1022000E0E9
:10429000012084F8DC00B0BD70B58E780D46044670
:1042A000022E19D294F8DC00032806D0022813D17C
:1042B0001EB3032084F8DC0007E09EB16068B042C2
:1042C0001BD0C1B22046FFF79EFC204631466660F7
:1042D000FFF77FFC022810D120462946BDE8704038
:1042E00000F086B8002031466060022084F8DC00CF
:1042F0002046FFF788FC00F03CF92046BDE87040FE
:1043000000F05BB9CA88012A0AD190F8DC20032AA0
:1043100008D0022A04D10022014641F8082F02E009
:1043200000F066B8011D012200F026B9B0B50446C0
:1043300090F8DC0000F0FE0002280DD10120254697
:1043400045F80C0FD5F8D80058B1204600F040F9D8
:10435000E06840F0020005E02046BDE8B04000F013
:1043600047B80320E060204629460222BDE8B0405D
:1043700000F002B9B0B504464888012818BFB0BDA6
:1043800001200D46C4F8E4000879022806D800F0A0
:10439000E3F803D000F0EAF800F0DAF82046BDE8D0
:1043A000B04000F00AB9B0B5044690F8DC000D4604
:1043B00000F0FE00022815D16888012818BFB0BDA2
:1043C0000020C4F8E4002879022806D800F0C4F8D8
:1043D00003D000F0CBF800F0BBF82046BDE8B040B9
:1043E00000F0EBB820462946BDE8B04000F000B828
:1043F00000F0A3B8B0B5044690F8DC000D460328E1
:104400000ED1287902280BD800F0A6F808D000F0C9
:10441000ADF800F09DF8E88820B900F0AAF801E0B6
:1044200000F0A0F80020B0BDBCB50D4609790446E7
:1044300001F07F00072802D300F094F867E002291A
:104440000FD82A7802F06002202A0AD104EBC102B8
:10445000D2F8F4202AB19068FFF75CFB00F078F8FE
:1044600055E06A7852B1012A10D0032A4FD194F84E
:10447000DC00032818D002280ED0DDE794F8DC20F9
:10448000032A27D0022AD7D150B940E094F8DC2083
:10449000032A2ED0022ACFD141F08000802836D0C6
:1044A0002046FFF761FD32E0688838B941F08000AE
:1044B000802803D02046FFF757FD2979022924D808
:1044C00004EBC100D0F8F400F8B100F04FF800F0B0
:1044D0003FF81AE02046FFF787FD002818BF0120AB
:1044E0000DF10601ADF806002046022200F044F866
:1044F0000DE06A885AB940B12046FFF755FD28798A
:10450000022802D804EBC000DCE700F032F80020FB
:10451000BCBD0A7802704A784270CB788A7842EA49
:10452000032242804B790A7942EA032282808A7907
:10453000C97942EA0121C180704710B58021044643
:10454000FFF712FD20460021BDE81040FFF70CBD2B
:10455000024620462946104704EBC000D0F8F4007C
:104560000028704720462946FFF742BF8068FFF7C2
:10457000D1BA204600F021B810B50C46C0F8101191
:104580000221C0E90622C0F8D410016A914288BF16
:10459000114600F029F8002010BD10B50C46016A44
:1045A000914288BF114600F01FF8002010BD80B571
:1045B0000021FFF761FD002080BD80B504210022AD
:1045C000C0F8D41000210023FFF738FD002080BD83
:1045D00080B50521002200F002F8002080BDC0F85F
:1045E000D4100021FFF748BD8BB200212246FFF70F
:1045F00025BDD4D407490022494491F8EC10002984
:104600004FF0000108BF092101800348784418BF1A
:104610001046704774000000E8220000074900229D
:10462000494491F8EC1000294FF0000108BF222105
:1046300001800348784418BF10467047740000009A
:10464000C9220000022906D180B504487844FFF74A
:10465000C7F9BDE880400020704700BFCDF1FFFFE3
:1046600070B5022921D11546022140221C46FFF7D0
:1046700003FD0F4E09EB06008079B0B90220FFF769
:104680008FF802460C48294623467844FFF7CCF8B9
:1046900002280AD10720012109F8060009EB0600CB
:1046A0008171044959F801104180002070BD00BF9C
:1046B00000000000640000008FF1FFFF122008805E
:1046C00001487844704700BFB622000004200880EB
:1046D00001487844704700BFB82200000E200880CF
:1046E00001487844704700BFAC22000018200880C1
:1046F00001487844704700BFAA2200000A200880C1
:1047000001487844704700BFB2220000182008809A
:1047100001487844704700BF8A22000018200880B2
:1047200001487844704700BF7A22000000200880CA
:1047300000207047B0B5164D04464FF48A7109EB5E
:10474000050000F041FA1348122148440C3000F0F3
:104750003BFABCB109EB05044FF48A71204600F026
:1047600033FA0D49204600227944FFF7F1F90B4A4C
:10477000002021467A44FFF71CFA2046BDE8B040ED
:10478000FFF722BA09EB0500BDE8B040FFF7F7B923
:104790007400000000000000B8210000CC210000DF
:1047A0002921018001487844704700BF1A22000087
:1047B0000A21018001487844704700BF362200007A
:1047C000BCB50D4609780446002011F06001ADF833
:1047D00006008DF8050010D020293CD16878A0F1A2
:1047E0000A01022936D3022818BF032816D0204612
:1047F0002946FFF7FDFD0220BCBD68780B2812D0CA
:104800000A280BD0062825D1E87821280FD02228A5
:104810001BD10DF10600FFF701FF0CE00DF10501C2
:104820002046012214E02046FFF7C7FE12E00DF1FA
:104830000600FFF7DFFE0146EA88BDF80600904259
:1048400038BF0246ADF8062001E0002200212046D4
:10485000FFF792FE0020BCBD10B582210322402349
:104860000446FFF74DFB2046022103224023FFF7B9
:1048700047FB204602214022FFF7FEFB002010BD2F
:1048800000207047E0B500206946CDE90000012016
:1048900000F02EF98CBDD4D4E0B5CDE90001694615
:1048A000014800F02DF98CBD12010002E0B5002096
:1048B00069460190B62000F023F98CBDF8B58DE86B
:1048C0000F006946024800F01BF904B080BD00BF2C
:1048D00014010004E0B500F007F96946014800F052
:1048E0000FF98CBDBC000001F8B501AB07C301A9ED
:1048F000024800F005F904B080BD00BFC30000030A
:10490000F8B501AB07C301A9024800F0F9F804B0FB
:1049100080BD00BFCB000003E0B5CDE900016946D2
:10492000014800F0EDF88CBDCD000002E0B5CDE906
:1049300000016946014800F0E3F88CBD1C0100024B
:10494000E0B5CDE900016946014800F0D9F88CBD19
:10495000F1000002E0B500F0C7F86946014800F038
:10496000CFF88CBDF200000110B586B00DF1040C3B
:10497000089CACE81F0001A9024800F0C1F806B08D
:1049800010BD00BFF300000510B586B00DF1040C9A
:10499000089CACE81F0001A9024800F0B1F806B07D
:1049A00010BD00BFF5000005F8B501AB07C301A9B4
:1049B000024800F0A5F804B080BD00BF0E0100035E
:1049C000F8B501AB07C301A9024800F099F804B09B
:1049D00080BD00BF2701000310B588B00C9C0DF10D
:1049E000040C07940B9C06940A9CACE81F0001A9D8
:1049F000024800F085F808B010BD00BF480100076C
:104A000010B586B00DF1040C089CACE81F0001A99C
:104A1000024800F06DF806B010BD00BF530000055D
:104A200082B000F061F86946024800F061F8FFDEEC
:104A3000FEE700BF9A000001E0B5CDE9000169463C
:104A4000014800F055F88CBD83000002E0B500205D
:104A500069460190842000F04BF88CBDF8B501AB9D
:104A600007C301A9024800F043F880B204B080BD3A
:104A700085000003E0B5002069460190872000F022
:104A800037F88CBDE0B500F02FF86946014800F01A
:104A90002FF88CBD0B010001E0B5002069460190A4
:104AA000792000F025F88CBDE0B500206946019022
:104AB0007A2000F01DF88CBD10B58AB0109C0DF165
:104AC000040C09940F9C08940E9C07940D9C06946A
:104AD0000C9CACE81F0001A9024800F009F80AB0DC
:104AE00010BD00BF7C0000090021CDE90001704726
:104AF00001DF002900D170470846FEF7E1FDD4D45C
:104B000001DF704703B44FF0240000F027B803B46E
:104B10004FF02A0000F022B803B44FF03C0000F040
:104B20001DB803B44FF03E0000F018B803B44FF0C6
:104B30004E0000F013B803B44FF0510000F00EB86F
:104B400003B44FF0550000F009B803B44FF0620011
:104B500000F004B803B44FF07B00FFE700490847BA
:104B60000180800000F032B800F004B800F004B812
:104B700000F00AB800F02FB8032A98BFFFF7FABF79
:104B800008C9043A08C0F7E700F06AB80B461146B6
:104B90001A4600F0FBB8D0B502AF1346D2B21404E7
:104BA00044EA036343EA02231344032902D908C0F9
:104BB0000439FAE7BDE8D040FFF7E8BF0022FFF76D
:104BC000E5BF0022FFF7E7BFFFF7FBBF0022FFF7BB
:104BD000E2BFFFF7F3BFF0B503AF2DE9000D0F2AD9
:104BE00008D900F005F9A64206D213F8015B06F8D1
:104BF000015BF8E7034628E0A2EB080C88442CF0A0
:104C0000030E04EB0E035FEA887114D0182101EA49
:104C1000C80A002128F00305A1EBC80101F0180B18
:104C200002CD9C420DD221FA0AF602CD01FA0BF216
:104C3000324304C4F5E741469C4202D204C904C48D
:104C4000FAE708EB0E010CF003021A44934204D277
:104C500011F8014B03F8014BF8E7BDE8000DF0BD7A
:104C6000F0B503AF2DE9000D431A934213D2831818
:104C700001EB020A0F2A6AD903F0030CAAF101051D
:104C800023F00304CCF100089C420FD215F801690F
:104C900003F8016DF8E70F2A2BD900F0A9F8A64216
:104CA00029D213F8015B06F8015BF8E7A2EB0C0EC2
:104CB000D0442EF00302A31AC2F1000C5FEA8872FE
:104CC00038D000221821A2EBC80201EAC80A02F07B
:104CD000180B28F0030252F80469A34233D206FAF3
:104CE0000BF152F8046926FA0AF5294344F8041D29
:104CF000F3E703463FE0A2EB080C88442CF0030ED8
:104D000004EB0E035FEA88712BD0182101EAC80A70
:104D1000002128F00305A1EBC80101F0180B02CD1A
:104D20009C4224D221FA0AF602CD01FA0BF2324358
:104D300004C4F5E771440439A34204D251F80429AC
:104D400044F8042DF8E708EB0C0A0EF00302991A58
:104D5000AAF10102994216D212F8014903F8014D55
:104D6000F8E741469C4202D204C904C4FAE708EBC2
:104D70000E010CF003021A44934204D211F8014BC5
:104D800003F8014BF8E7BDE8000DF0BDF0B503AF47
:104D90004DF804BD0F2A0AD94342044603F0030C20
:104DA00000EB0C039C4204D204F8011BFAE7054611
:104DB00015E0CCB20826202E06D206F018057600A3
:104DC00004FA05F52C43F6E7A2EB0C0222F00305EA
:104DD0001D44AB4201D210C3FBE702F003022A4498
:104DE000954202D205F8011BFAE75DF804BBF0BD5D
:104DF0004342064603F003080B4600EB08047047E5
:104E0000A926DEC00100000001000000F115DEC08F
:104E1000A926DEC002000000020000002128DEC03A
:104E200050656E64696E67205265766965775320B8
:104E30005420412052204B204E20452054413031F7
:104E400000010204033078303030313032303330FA
:104E50003430353036303730383039313031313127
:104E6000323133313431353136313731383139320D
:104E70003032313232323332343235323632373206
:104E800038323933303331333233333334333533EB
:104E900036333733383339343034313432343334D1
:104EA00034343534363437343834393530353135B7
:104EB000323533353435353536353735383539369D
:104EC0003036313632363336343635363636373696
:104ED000383639373037313732373337343735377B
:104EE0003637373738373938303831383238333861
:104EF0003438353836383738383839393039313947
:104F00003239333934393539363937393839392046
:104F1000202020536F6D655A65726F088A280848F3
:104F20001242086B696E6421842401411105014E0F
:104F30006F6E65207B0A2C0A2C20207B207D207D33
:104F4000280A28D4A926DEC00400000004000000BE
:104F5000A915DEC0AF15DEC0B515DEC05061727395
:104F600065496E744572726F724E65674F766572F1
:104F7000666C6F77506F734F766572666C6F7749AA
:104F80006E76616C69644469676974456D707479A3
:104F9000293A20557466384572726F7276616C6971
:104FA000645F75705F746F6572726F725F6C656E4F
:104FB00001010101010101010101010101010101E1
:104FC00001010101010101010101010101010101D1
:104FD00001010101010101010101010101010101C1
:104FE00001010101010101010101010101010101B1
:104FF00001010101010101010101010101010101A1
:105000000101010101010101010101010101010190
:105010000101010101010101010101010101010180
:105020000101010101010101010101010101010170
:105030000000000000000000000000000000000070
:105040000000000000000000000000000000000060
:105050000000000000000000000000000000000050
:105060000000000000000000000000000000000040
:105070000000020202020202020202020202020214
:105080000202020202020202020202020202020200
:1050900003030303030303030303030303030303E0
:1050A00004040404040000000000000000000000EC
:1050B000A926DEC00C000000040000007913DEC049
:1050C000F914DEC07915DEC02829D4D4A926DEC0A3
:1050D0000800000004000000DD17DEC0A926DEC0C5
:1050E0000000000001000000ED23DEC054782068BD
:1050F000617368207265766965773A7372632F64AD
:105100006973706C61792E72735369676E3F526573
:1051100076696577204D756C746963616C6C205499
:105120007852657669657720547800808F08111F62
:1051300000004163636F756E743A00000000000068
:105140007C008033C6CE618C710000986F8C311C5E
:105150000000E031C618638C3D000000270C820E71
:105160000000C041880801040000808927841002E3
:105170000000E018633837C61C0000002E84101CA5
:1051800000008031C618638CB10300606686611828
:105190000000000CC33033030000C01B638C31C619
:1051A000780060086318431800000000ED8D310698
:1051B00000000023C68C11030000546F6F53686F0A
:1051C00072748001C618638C3103D4D4FB50DEC0E6
:1051D0000E0000002A0000001D000000FB50DEC091
:1051E0000E0000002A00000027000000FB50DEC077
:1051F0000E0000002A00000033000000FB50DEC05B
:105200000E0000002A0000003F000000436F6E66A1
:1052100069726D4D61784665653AD4D4FB50DEC045
:105220000E000000350000001C000000FB50DEC036
:105230000E0000003500000026000000FB50DEC01C
:105240000E0000003500000032000000FB50DEC000
:105250000E000000350000003E0000004E6F6E633F
:10526000653AD4D4FB50DEC00E00000040000000C0
:105270001B000000FB50DEC00E00000040000000DC
:1052800025000000FB50DEC00E00000040000000C2
:1052900031000000FB50DEC00E00000040000000A6
:1052A0003D000000526576696577205478204D7581
:1052B0006C746963616C6C646174613A526576699F
:1052C00065772054782043616C6C646174613A4363
:1052D0006F6E74726163743AFB50DEC00E000000A2
:1052E000530000001A000000FB50DEC00E0000005A
:1052F0005300000024000000FB50DEC00E00000040
:105300005300000030000000FB50DEC00E00000023
:10531000530000003C00000053656C6563746F72BD
:105320003AD4D4D4FB50DEC00E0000005D00000073
:105330001A00000053656C6563746F722063616CC2
:105340006C646174613AD4D4FB50DEC00E0000007E
:105350007000000027000000FB50DEC00E000000BF
:105360007000000031000000FB50DEC00E000000A5
:10537000700000003D000000FB50DEC00E00000089
:105380007000000049000000A926DEC010000000E7
:1053900004000000AD26DEC05369676E4572726F6F
:1053A00072556E76616C6964506174684C656E67A5
:1053B00074684572726F72556E76616C6964506183
:1053C00074685072656669784572726F72496E765C
:1053D000616C69645061796C6F61644C656E6D6974
:1053E0006E7061796C6F61646D6178496E76616C25
:1053F0006964534C656E496E76616C6964534D61A6
:10540000726B6572496E76616C6964524C656E4967
:105410006E76616C6964524D61726B6572496E762D
:10542000616C6964444552507265666978D4D4D41D
:10543000049EE3EBA8C1600700EE1B87EB599F16A3
:10544000716B0B1022947733551FDE4050CA6804ED
:1054500003CA0CFE4B3BC6DDF346D49D06EA0ED3D1
:105460004E621062C0E056C1D0405D266E10268AA2
:105470000234287DCBAFFE7F969C748655FCA9E54F
:105480008FA8120B6D56EB0C1080D17957EBE47B93
:1054900003B056F100F96FB21E889527D41F4E391C
:1054A000940135DD7A6C94CC6ED0268EE89E56152C
:1054B00004FA56F376C83DB33F9DAB2656558F335D
:1054C00099099EC1DE5E3018B7A6932DBA8AA378DB
:1054D00003FA0984C931C9E38113E0C0E47E4401C1
:1054E000562761F92A7A23B45168F4E80FF5B54DCF
:1054F00004BA4CC166BE8DEC764910F75B45F74B9C
:1055000040C690C74709E90F3AA372F0BD2D6997CD
:105510000040301CF5C1751F4B971E46C4EDE85F77
:10552000CAC5C59A5CE5AE7C48151F27B24B219CC5
:10553000054302DCB0E6CC1C6E44CCA8F61A63BB73
:105540002CA65048D53FB325D36FF12C49A5820234
:1055500001B77B3E37D13504B348046268D8AE2525
:10556000CE98AD783C25561A879DCC77E99C2426A9
:10557000617373657274696F6E206661696C6564CE
:105580003A206D6964203C3D2073656C662E6C6525
:105590006E282963616C6C656420604F7074696F5C
:1055A0006E3A3A756E77726170282960206F6E20AE
:1055B0006120604E6F6E65602076616C7565636119
:1055C0006C6C65642060526573756C743A3A756EE4
:1055D00077726170282960206F6E20616E206045AF
:1055E0007272602076616C7565D4D4D4A926DEC051
:1055F0000800000004000000DD17DEC0F800000015
:105600000000020EFFFFFFFFFFFFFFF738A13B4B3B
:10561000920E9411AE6DA5F40B0358B10800000072
:1056200000000010FFFFFFFFFFFFFFFFB781126DBB
:10563000CAE7B2321E66A241ADC64D2F000000007F
:10564000000000000000000000000000000000005A
:10565000000000000000696E766F6B6543616E6349
:10566000656CD4D42B4FDEC004000000070000009E
:1056700004000000000000006456DEC07700220035
:105680001B4FDEC004000000070000000400000003
:10569000000000008056DEC002001A008056DEC006
:1056A00002001E006456DEC077001E00274FDEC0D9
:1056B00004000000040000000700000000000000DB
:1056C000AC56DEC076001C001F4FDEC00400000098
:1056D000040000000700000000000000C856DEC003
:1056E00006001C002F6170702F6C65646765722D59
:1056F0006E616E6F732D75692F7372632F75692ECE
:105700007273F003FFE3FFF97FFFFB7F7C8F8FF164
:1057100007FEC3EFF9F97FFC0FFC00D40257DEC08F
:10572000190000000E0000000E0000000000000044
:105730001C57DEC000001900AC56DEC07A001C0009
:10574000E001FEC1FFB877C6D803FFE17FF80FBCC8
:1057500031E6DEF13FF8077800D4D4D44057DEC0FC
:10576000190000000E0000000E0000000000000004
:105770005C57DEC000001900C856DEC002001C00E5
:10578000E456DEC01E000000700100001A00000098
:1057900000000000009024090200600600000000E4
:1057A0000010C94FA1FC240200000000E0290A8378
:1057B000611E0000008CA850A1CD162A54C4000020
:1057C0000000001C12120C4A52225E000000280049
:1057D00000909424920090449292000041FC8C042A
:1057E00000000000000000C88F0000000000000062
:1057F0005200000000060000000000020080442467
:105800002201000023499224490C000000A3200833
:1058100082200800008003411042081E000080031F
:10582000410C04410E00000020302824247E20205A
:105830000000008027081E04410E00000027089E7B
:1058400024490C0000800741084210040000002396
:10585000498C24490C00000023499207410E0000A6
:105860000004000200000400520000002186814074
:105870000000000000001EE00100000000201018E1
:10588000460800000000E043905C4A29A5947E028F
:10589000F00100000004854211F9444100000000BD
:1058A0009F48E41189443E000000009E41201008FA
:1058B0000C3C000000003E4242424242423E000098
:1058C000008027089E20081E0000802F08822F08D5
:1058D000020000007C0202026242427C00000000E2
:1058E0004242427E4242424200000090244902006D
:1058F0004044444444030091446150484442000001
:10590000008020088220083E000000186698614A46
:105910002925934C32010000000042464A4A525267
:10592000624200000000F8081224489020417C00E8
:10593000000000008F4824F208040200000000F874
:10594000081224489020417C40000100008F482428
:10595000F24844220000000027080606410E00001D
:10596000001F028140201008000000004242424215
:105970004242423C00000080A04824A25028080077
:10598000000000C428934C4A29A51421840000007B
:10599000004028310C23492100004028490C822076
:1059A0000800008007210821081E0000E0222222B2
:1059B000220E10224244080070444444440700C3AD
:1059C000485208000000000402000000000000002F
:1059D0000000789027491E00000081C023128944EE
:1059E0001E000000001088271289443C00000000BF
:1059F00000709227081C00000000F892E4085E186E
:105A00007A0081C023128944220000001024490238
:105A1000004040444444748020488AA14812000059
:105A200000000080772289249248220100000000B3
:105A300000C0231289442200000000008023128944
:105A4000441C0000000000C0231289441E81400055
:105A5000000080271289443C10080400E022220242
:105A60000000F222220E00000040241289443E0071
:105A700000000000849224310C000000000088A87F
:105A80004A952A22440000000000004812C3481230
:105A900000000000849224310C410CC04424424494
:105AA0000C00822008822008822030224224220317
:105AB000000000060600000000009F4824128944F0
:105AC0003E000000B06DC30600802D4900000000BC
:105AD00000000012C94FF94B241200000088B72CB7
