:02000004C0D06A
:1000000080B500AF03F0ECFC012003F059F8FEDEF0
:10001000F8B504AF00900178012005462B2915D0D2
:100020002D2913D000242546012C0CD00098005D0A
:100030000A26314601F072FA002803D06E43751883
:10004000641CF1E70125601E411E88412946F8BD68
:10005000E0B502AF002801D108468CBD03487844C2
:1000600001A9034A7A4401F0B5FBFEDED157000036
:10007000F0500000E0B502AF80B20649884200D1DE
:100080008CBD0548784401A9044A7A4401F0A2FBDA
:10009000FEDEC04603FF0000AB570000DA50000050
:1000A00080B500AFC6B0FF21123101AC204604F08C
:1000B00023FF07204103204603F0AFF8002002F0A1
:1000C000FFFFFEDEF0B503AF994EB5449948684492
:1000D0003090994868442E90984868443B90FF219E
:1000E0000C9112313CAC204604F006FF9448784451
:1000F0000F2103F0C3F9934881A908180790D7206E
:1001000080000818189008343A9458311B918E4892
:1001100068442C300A9001202490060200248A486A
:1001200068443146E331A14205D00019A12104F011
:100130006DFEA134F3E785487F4D6D44399528184D
:100140002024214604F062FE2846214604F0D4FE15
:1001500020350C9AE4327C496944284604F006FEB6
:10016000794D6D4428461C94214604F0C5FE78481C
:100170002818802104F04AFE28462030754A399913
:1001800004F0F4FD81AC1921204604F0B5FE2046B0
:100190001930714A1A90294604F0DEFDB72080001C
:1001A00020188221239004F0A7FE9F2080002018B1
:1001B0001590AF2080002018129097208000201802
:1001C0001990A7208000201811908F2080002018FF
:1001D0001090BF20800020183590CF20800020187C
:1001E0001790C720800020181690432080003CA95B
:1001F0000818399054486844811C139108301490B1
:1002000051486844811C0E9108301E904A48684449
:10021000401C059047486844401C04904648684488
:10022000401C099048486844801C089039340B945D
:1002300021E002F0A8FE002801D102F0ACFE424C01
:100240006C448021204602F097FE6578A4783B98A4
:10025000406D02F083FEC0B201460E39082921D854
:10026000200240197944097949008F440410283745
:1002700037373737320034486844802104F03CFE79
:100280000021C6488171017038914180D1E7012178
:10029000090280B2884221D12B486844C07802F01C
:1002A0008DFE1BE0052819D127486844C078410815
:1002B000399802F00DFFC0B206280FD077E000BADF
:1002C000000C02280AD9204969443A9802F0A8FE95
:1002D00004E01D4969443A9802F0D6FEAF48007820
:1002E0000028A6D0AD4840880028A2D03C903CA869
:1002F000407A042805D9372041023CA802F08DFF3E
:1003000097E7A7497944085C800004A108580818B9
:10031000A44A7A44A44979448746C0464000000074
:100320009C0000003A010000CA0100002602000003
:1003300024F5FFFFA80A0000800800006405000003
:10034000865000005B020000B805000003020000B8
:100350004302000023020000C302000093487844D7
:1003600036909349794433918847379101223892E6
:100370001040904D7D44A8478F487844339CA04757
:100380000A463491389908401146A8473698A04744
:100390000C46389908402146A847884969448C7022
:1003A00034984870379808703CA8032252E104281A
:1003B00000D060E700F0F2FF81AC204602F092FB33
:1003C000012020767D4868443CA902F043FF3B9C15
:1003D000606D002800D101E1A16D309A03C2784818
:1003E000684481A902F066FD054680B275498842DD
:1003F00000D008E1744D6D44389581A9284602F07B
:1004000099FF2878379041251E98294604F074FDFD
:100410006A49694437980870A565389A249B04F0A6
:1004200067FC00280CD16548684445780478674823
:1004300068444A220E9904F08FFC202C00D066E21A
:100440000B251C9C6048684402F0B6FB202C00D0B1
:10045000F3E06822D8E0329231913CA9C87A389012
:100460008C7A5648684402F0F5FE3B98456D002DA5
:1004700000D1B3E0826D30988560C260002C00D15D
:10048000B1E023982946379202F06EFA3898002896
:1004900001D100F058FF4E4878440F2102F0D6FFFA
:1004A000464C6C4420462946379A02F076FA20786A
:1004B000002815D14148684444783F22099808999A
:1004C00004F04AFC414969440C703C4868444022AD
:1004D00001F086F93B9C606D002801D100F08AFC98
:1004E00068220B2590E081AC204602F0FBFA042044
:1004F0002076324868443CA902F0ACFE3B98456D3A
:10050000002D6BD0846D1F2C01D800F053FF2F48B5
:100510006844379020223892294602F025FA203587
:10052000203C2648684436902946224602F01CFAB0
:10053000379C2046369902F0DDF83CA82146389ACF
:1005400088E0329231913CA9C87A2F908C7A1B486E
:10055000684402F07FFE3B98416D00293ED0826DD9
:10056000C16436920265042C76D8A00002A210580D
:100570001018184C7C44874614000000FA00000054
:1005800086010000BA010000E402000081AC2046B0
:1005900002F0A8FA032020760F482BE0000200208A
:1005A000824E000006560000B72F0000264E0000C5
:1005B000A9FCFFFFD9FCFFFF0B4E0000B8050000AF
:1005C000A80A000003FF0000B00A00008008000035
:1005D000685100007D210000B0050000F348684428
:1005E00085882A0A10E081AC204602F07BFA0220BE
:1005F0002076EF486844214602F05CFC054680B254
:10060000EC49884228D0FF22311D3D98884201D311
:1006100000F0BDFE3CAB181802723D98401C8842A9
:1006200001D300F0B4FE3CA9081805723D98801C67
:100630003D90084602F076FD13E0DC4868444570C2
:100640000470DD4969444A22139804F085FB3CA8F4
:100650004122149902F03CFE092001033CA802F05B
:10066000DCFD02F0E9FED54878440F2102F006FFD8
:1006700001E6CE48684420233493D14C7C4438941E
:10068000369AA0473B9D696DAA6DE86D36902C6E39
:10069000CC4B7B4437931A989847C44868443699A2
:1006A0002246349B389CA047696DAA6DE86D369050
:1006B0002C6E1998379B9847BC4868443699224657
:1006C000349B389CA047696DAA6DE86D36902C6EFE
:1006D0001298379B9847B548684436992246349B10
:1006E000389CA047696DAA6DE86D38902D6E1598FD
:1006F000379CA047119838992A46A047ACE7AB48E9
:1007000068442023369A01F0E3FF3B9803465433B4
:100710000ECB3893056E0B9C204602F025F91098FD
:1007200038992A4602F020F93598214601F0E2FF77
:1007300092E79E4868442023369A01F0C9FF3B980F
:100740000546543526CD006E38909848684402F02E
:100750000BF92F98022801D900F018FE37952D9437
:10076000A125454381A84419593490496944202260
:100770002046349204F0F0FA3598214601F0BAFF91
:100780003898002801D100F01BFE81A84019379C41
:100790002178792281542378611C3898421E83483D
:1007A000684401F095FF3B98846D212C01D300F043
:1007B0000FFEC16D3291016E3191426D2F9281A871
:1007C000339540197A302146234600F0B9FF352091
:1007D000C10076486844389004F093FB00203790BD
:1007E0003B990860784868443690349D294604F067
:1007F00083FB3898314604F08DFA369800900195C5
:100800000121389838912F9A234604F077FA284628
:10081000379C214604F048F9674868442946369ACF
:100820002B4604F057F90C9D2046249CFA2D38994C
:1008300000D337990006204600D10846002816D17B
:100840003B980068294604F075F9FB2D01D3002080
:1008500000E00120FA2DE9D96D1EE7E72D943491CF
:100860002F9C002C5BD0022C5DD900F08CFD3B98B6
:10087000006855496944379120242246349404F095
:1008800041F94D48684404F031F981A8339945187D
:10089000389504F015F99A3528463799224604F020
:1008A0005BFA359829462D9A90474048684432991A
:1008B000319A234601F00CFF3B98034654330ECB8C
:1008C0003693006E3790394D6D44284602F04CF84F
:1008D000389CBA3420462946349D2A4604F03CFA16
:1008E000359821462D9A9047304C6C4420463699D5
:1008F000379A02F039F83898DA30389021462A468B
:1009000004F02AFA359838992D9A9047A4E62A4897
:1009100068442D4969444A2204F028FA92E5359842
:10092000109901F0E7FEA121614381A82C914418A0
:10093000F920255C21467A311C48684420221D910B
:1009400000F04EFF3B98406D002801D000F043FDC1
:10095000F93438990F943395C8B2A84201D30B46A5
:1009600000E04B1CA84231D24807010E0846203057
:10097000369A904201D900F00DFD34984118379114
:100980000A48684420252A46389301F0EDFF074CB9
:100990006C44204637992A46339D01F0E5FF35988F
:1009A000214601F0A7FE3899D6E7C046B8050000F9
:1009B000B00A000003FF0000640500000C4B0000BB
:1009C00051200000D3220000800800001B9804780A
:1009D0002F98401C0D90A04278D10798007837904E
:1009E000474D6D441F213391284604F085FAA0003D
:1009F00037990818801C2C463895E8773598294691
:100A00002D9DA847F949794420223792204604F0C9
:100A1000A3F9239C20463899A84720461199A84756
:100A200020461A99A8473898379904F065FA204665
:100A30003899A84720463599A84720461999A847CC
:100A400020461299A84720461599A8473898339907
:100A500004F052FA08203899C8772046A8470025A4
:100A60002E9805603798294604F01EF8E04868443F
:100A7000379922460B4604F02DF8FD48684405706E
:100A8000711C4D1E20D02E980068891EF84C6C44B5
:100A9000224604F043F8207800282946F1D0F72DAB
:100AA00012D907200540681E04280FD22E9C20680A
:100AB000042104F04BF820682022239904F022F846
:100AC000EA48684404F012F803F0FAFF2F9C002C67
:100AD000EB4878442590EB487844379007D01B9832
:100AE000007801280ED9E848784418210DE01B98B9
:100AF0000078012800D891E2E4487844132190E27C
:100B0000B8050000E2487844132102F09FFC022C53
:100B100001D900F038FC81A82C9941185931B24C08
:100B20006C4420223892204601F037FFCF4D6D44AF
:100B30002846214601F06AFFD0486844339040249B
:100B4000294622462F9404F007F9A74D6D44284604
:100B50003399224600F044FE284601F06DFF3391A0
:100B6000F74A7A440092002210232A930446259DD6
:100B7000A8472D902B91F548784400902794204663
:100B800033992A9A389BA8472A902991F0487844AB
:100B90000090302326932046339C2146389AA8475C
:100BA00038902891EB487844009027982146269A5F
:100BB0002F9BA8473B9A506791670924E6487844E1
:100BC000506594652D98D0652B9810662A985066CC
:100BD000299890663898D066289810670720309931
:100BE000229048603798086001232E9A5361DB48B1
:100BF000684410612193D360D9486844906005200F
:100C00001F90506078486844106006202090C860AB
:100C1000329888609548684402F054FC002800D15E
:100C200085E381A82C9940182F9079213391435C5A
:100C3000202100251D982A4601F037FF02460B4669
:100C40003894694C6C44204611461A4600F0C8FDA1
:100C5000204601F0F1FE339A2F9B9B5CC14A7A44F7
:100C600000922A4601F0FEFEBF4A7A442E9B1A608B
:100C7000389A5A609860D9603099229848603798BD
:100C800008603B9A219B9366B4486844506613669B
:100C9000B3486844D0650220906574486844506544
:100CA0002098C860329888604F48684402F00AFC77
:100CB000002800D13BE30F980078400120301D90C0
:100CC000294620311D98884200D134E3E0200540B8
:100CD0002B4620333498339136992A4601F0E5FEAD
:100CE00002460B46404C6C44204611461A4601F021
:100CF00054FE5E4D6D442846214601F087FE5F4854
:100D0000684438904024294622462F9404F024F861
:100D1000354D6D4428463899224600F061FD28463D
:100D200001F08AFE3891914A7A4400920022102301
:100D30002B930446259DA8472D902C918C487844F0
:100D40000090202329932794204638992B9AA8476E
:100D50002B902A9187487844009030232693204690
:100D6000389C2146299AA84729902891824878449E
:100D7000009027982146269A2F9BA8473B9A5067B8
:100D8000916712207D497944516590652D98D06511
:100D90002C9810662B9850662A9890662998D066F1
:100DA00028981067309922984860379808602E9AE2
:100DB000219B5361694868441061D3606848684466
:100DC00090601F9850600848684410602098C86080
:100DD000329888602548684402F074FB33990028F3
:100DE0000D4600D06DE7A2E2B8050000764A00008B
:100DF00080080000A06D3790E56D369502F01CFB71
:100E000000220498C2708270427002705448684494
:100E10000270681E0009401CE064594868440225BD
:100E2000858201213891616556497944E1652266E0
:100E30005549616655496944379B2360369B636019
:100E4000A060E16014460D486844114602F01EFCA3
:100E50004348684402F0D2FAC0B20628F8D0052808
:100E6000F6D804A1085C40008744C0468008000012
:100E700064050000151A141F2736C04664050000DB
:100E80008F1F0000B84B0000404C0000284B0000B2
:100E90003A4C0000DCE73E48784402F0ABFCD7E770
:100EA0003C48784402F0A6FCD2E73B48784402F084
:100EB00037FD002C0CD0641E0AE03848784402F05C
:100EC0002FFD2146641C3B98C06C844200D30C4625
:100ED000334868442146B9E702F0AEFA002105988C
:100EE000C1708170417001702E4868443791017063
:100EF0000A9805808120410021486844369081820B
:100F00003B9B3898D8660521274A7A445A679967E7
:100F10001D4ADA670621329CDC6519665A665865F7
:100F2000369802F0B9FA249C1E48684402F066FA2A
:100F3000C0B20628F8D003A1085C40008744C04630
:100F4000FA4B0000363B40495C68C046F44B000059
:100F5000EE4B0000E64B0000954B0000B00A00008D
:100F6000A80A00004A4B0000324B0000A44A0000CF
:100F70009E4A0000964A00008E4A0000324A000055
:100F8000B8050000864B000080000B00B005000093
:100F9000B84A0000A44A0000A44A00008A4A00009F
:100FA000640500008008000013470000FD487844F5
:100FB00002F020FCB8E7FC48784402F01BFCB3E7E1
:100FC000FA48784402F0ACFCF948784402F0A8FCF6
:100FD000AAE7FD48784402F0A3FC0A9837994170CB
:100FE000FA4C6C4438986075204602F0B1FC2046FB
:100FF00002F052FA379C97E7FB48784402F090FCE5
:101000000A9838994170FD4868443799417588E7D6
:10101000E00700D097E16E22FFF7F6FAF348784434
:10102000092102F013FAF54C6C4420223892204634
:101030001A9901F0B2FCF04D6D442846214601F0AA
:10104000E5FCEE4C6C4440222D922046294600F0EF
:10105000C7FB204601F0F0FC3391F04A7A4400923D
:101060000022102329930446259DA8472B902A91FE
:10107000EB4878440090269420463399299A389B6F
:10108000A84729902891E74878440090302322937C
:101090002046339C2146389AA84738902791E24849
:1010A0007844009026982146229A2D9BA8473B9A87
:1010B000506791670820DD497944516590652B9808
:1010C000D0652A98106629985066289890663898B6
:1010D000D066279810670725CA486844056030998C
:1010E000379808600124C84868440460C4486844CC
:1010F000C64A6A441060C64868440460BC486844F4
:10110000C44A6A44106005203890C34A6A4410609B
:10111000BA4868442E9A106006223298886033924A
:10112000CA60B448684402F0CDF9002800D1FEE05E
:101130002A94B24C6C4420222D922046199901F039
:101140002CFC2995AB4D6D442846214601F05EFCF0
:10115000A94868442B90402429462246289403F04D
:10116000FBFDA64D6D4428462B99224600F038FB26
:10117000284601F061FC2B91AD4A7A44009200228E
:10118000102322930446259DA84727902691A9481D
:10119000784400901F9420462B99229A2D9BA847B3
:1011A00022902191A4487844009030230693204651
:1011B0002B9C21462D9AA8472D9020919F4878443A
:1011C00000901F982146069A2A9C289BA847299D93
:1011D0003B9A506791679A4878445065956527987F
:1011E000D0652698106622985066219890662D98B2
:1011F000D0662098106730994D60379808602E9A15
:1012000054617F4868441061D460794868449060B4
:10121000389850607948684410603398C8603298B4
:1012200088607448684402F04DF900287FD0734C00
:101230006C4420222D922046159901F0AEFB6D4D95
:101240006D442846214601F0E1FB6B4868442B9031
:10125000402429462246289403F07EFD674D6D44C4
:1012600028462B99224600F0BBFA284601F0E4FB01
:101270002B91744A7A440092002210232293044650
:10128000259DA847279026916F48784400901F9489
:1012900020462B99229A2D9BA847229021916B489A
:1012A000784400903023069320462B9C21462D9AAB
:1012B000A8472D9020916648784400901F982146B9
:1012C000069A2F9C289BA8473B9A506791676148D4
:1012D00078445065339B93652798D06526981066AF
:1012E00022985066219890662D98D06620981067B5
:1012F000309929984860379808602E9A2A9D556140
:101300003F4868441061D560394868449060389817
:1013100050603A4868441060CB6032988860354825
:10132000684402F0CFF8002801D0FFF7D8FB6E2206
:101330000225FFF769F91B9800780D99C9B281421F
:1013400001D0FFF789F981A801F050FCFEF792FE69
:101350003CAC41497944012238922046319DA8474E
:101360002022379220461699A84720461799379A87
:10137000A847189800782149694408702046389A8F
:10138000A847FFF769F90321204600E0032100F098
:10139000E6F9FEDE369900F0EFFEFEDE002001F0F9
:1013A0008FFEFEDE7A4900006649000070490000A9
:1013B000724900002C487844232100F0D5F8FEDE65
:1013C000264878442B21F8E754490000B80500006E
:1013D00020212046DFE72248784406496944214A13
:1013E0007A4400F0F7F9FEDE2449000017460000B9
:1013F000A80A00008008000064050000B80500008D
:10140000B00A0000AC0A0000940800009008000038
:101410008C0800008808000084080000F4450000E3
:10142000EE450000E8450000E0450000864500006C
:1014300026450000204500001A4500001245000026
:10144000BF440000744400006E4400006844000083
:1014500060440000104400002F3E00003E400000A9
:10146000574400004C4000005644000080B500AFD7
:10147000FEF716FEFEDE80B500AF812903D24018CC
:101480008022511A80BD80220846114600F074FE69
:10149000FEDED4D4D0B502AFA2B00C467F210F221D
:1014A00002400A2A01D3572300E030239A1802ABE6
:1014B0005A54491E0009F2D1491C02A8FFF7DBFF6C
:1014C00003460091034979440222204600F046FB7E
:1014D00022B0D0BDC53C0000D0B502AFA2B00C46D2
:1014E0007F210F2202400A2A01D3372300E0302354
:1014F0009A1802AB5A54491E0009F2D1491C02A89D
:10150000FFF7B9FF034600910349794402222046C0
:1015100000F024FB22B0D0BD813C000080B500AFBC
:101520000346303B0A2906D9242915D80A2B0AD2AA
:1015300001201A4605E01A468A4201D3002000E045
:101540000120114680BD024620200243613A0A3242
:10155000F2D30020C243EFE700F001F8FEDE80B5D1
:1015600000AFFFF783FFFEDE80B500AFFFF7F7FFA8
:10157000FEDED4D4DFB506AF0C4601908869C96998
:10158000CB680B4979440D229847014602A80022F6
:1015900042710171029407497944009106497944E6
:1015A000042201AB00F08CFE00F024FF04B0D0BD9B
:1015B000D13C000021000000D03C000080B500AF0D
:1015C00000680078784400794000874402091016CA
:1015D0001D008869C969CB680F497944052219E063
:1015E0008869C969CB680D4979440C2212E0886981
:1015F000C969CB680A49794404E08869C969CB683C
:10160000084979440B2205E08869C969CB68064915
:1016100079440422984780BDBE3C0000A43C0000F1
:101620008B3C0000743C00005A3C0000DCB504AF69
:1016300000680278002A0DD0401C01900A487844C6
:1016400000900A4C7C44042201AB0846214600F07D
:10165000B9FCDCBD8869C969CB68024979440422B8
:101660009847DCBD163C0000530A0000223C0000F5
:10167000F0B503AF8FB0029127242C497944039130
:10168000284988421FD9284903F083FB049088B277
:10169000642103F07EFB06464900039A505C05ABCB
:1016A0001B1925469C1E20705118497861702C46E4
:1016B000B0B24500515D1B1F04981970511949784B
:1016C0005970241FDCE763280DD980B2642103F030
:1016D00060FB4B00039DE95CA41E05AAA154A11860
:1016E000EA1852784A700A2804D2641E303005A9DC
:1016F000085509E041000398425CA41E05AB1A5549
:101700001A194118497851702721091B009105A920
:101710000B19074979440022029800F01FFA0FB014
:10172000F0BDC0460F27000010270000113B00004D
:101730009C42000080B500AF0068FFF799FF80BDB4
:10174000D0B502AF0C46994204D11146224603F0AF
:1017500003FBD0BD2046194600F001F8FEDE80B53F
:1017600000AFFFF7FCFEFEDEB0B502AF86B00D465F
:101770000290001D03908869C969CB6810497944BB
:10178000092422469847014604A8002242710171AB
:1017900004950C49794400910B4979440B2202AB22
:1017A00000F08EFD0949794400910949794403AB61
:1017B000224600F085FD00F01DFE06B0B0BDC0461B
:1017C0001F3B0000790900000C3B000083FEFFFF77
:1017D000053B000080B500AFFFF7C1FEFEDED4D4AC
:1017E000F0B503AF87B00190D51F0023072A00D2C0
:1017F0001D46C81C03240094A043461A614878443F
:10180000069003950596934200D39DE0C85C44B2D0
:10181000002C06D4701C02D0F01A800717D05B1C75
:10182000F1E7069D2D5C01260496042D26D0032D9C
:1018300034D0022D059E00D08CE0581C904200D37D
:1018400090E00C564025ED43AC427ADD82E018462C
:10185000A84208D20B580C1864681C43484B1C4221
:1018600001D10830F4E79042034600D81346904275
:10187000C9D20C56002C22D4401CF8E75D1C00266F
:101880000296954270D24D57F0281AD0F428059E42
:101890001DD17020C043854223DD5BE05D1C002626
:1018A00002969542059E5FD24D5DE02828D0ED2836
:1018B0002BD15F20C0436CB284423ADB4AE003463E
:1018C000A1E77035E8B23028059E0AD342E00F3414
:1018D000E0B202283ED8002D3CD5E8B280090328AA
:1018E00038D2981C90423FD208564024E443A0428C
:1018F00033DCD81C904237D20D56A54221DD2EE0B4
:10190000E0200540A02D14D024E020461F30C0B2B6
:101910000C2805D24020C0436CB2844209DD19E096
:10192000E0B24008772815D168B2002812D5C02D42
:1019300010D2981C904217D20C564025ED43AC4271
:101940000BDC431C039D5EE7019841600146826009
:10195000002012E00498009002E002200090049819
:10196000029001E0002002900098C0B200020299AB
:10197000081801994B6088600498086007B0F0BDB2
:1019800080808080BC3A0000D0B502AF02460020C3
:10199000002909D00023D3564024E443A34200DDAC
:1019A000401C491E521CF3E7D0BDD4D4D0B502AFC1
:1019B0009A4205D3D21A9C000C191AC00260D0BDFD
:1019C000024878442321FFF7CFFDFEDE4A3E0000A7
:1019D0000068FEE7F0B503AF8FB0202406AD032307
:1019E0002B5513460794002606960D910C900A96E7
:1019F00008969468002C049241D020351F20C00620
:101A0000D9684A0105928143019102950598002801
:101A100058D0186881194A68002A07D081590D9852
:101A2000C3680C989847049B00285BD1204620305F
:101A30000390207F287060680790A06806901D6959
:101A400021461431284600F053F8099108902146A8
:101A50000C31284600F04CF80B910A902068C10028
:101A600068586918029D4A6806A99047049B083681
:101A70000599203905910028039CC7D032E0072042
:101A800040071C695969CA000592814301910025EC
:101A90000598A84216D0186841194A68002A06D04D
:101AA00041590D98C3680C98984700281AD12646CA
:101AB000083605CC06A99047049B08350028344613
:101AC000E6D00FE05868019981420DD20198C0001C
:101AD0001A681158101842680D98C3680C989847F6
:101AE000002801D0012000E000200FB0F0BDD4D4C8
:101AF000D0B502AF0B68002B0CD002460020012BA2
:101B00000AD14968CB00D1184968064C7C44A142EF
:101B100003D0D0BD081D01E0D0BDD0580168012020
:101B2000D0BDC046C1FEFFFFFEB506AF02930192D5
:101B30000E4604460025AE4209D00298026901987B
:101B4000214690476D1C0028F5D0681E00E0304605
:101B5000B04201D30020FEBD0120FEBDF0B503AFB1
:101B60008DB00C920A46054606680121304609915F
:101B70000840112109040028069100D02B210B9167
:101B8000B968441870070893079102D400200A909E
:101B900006E00C9811180A92104600F085F8041916
:101BA000A86800282AD0E968A14227D930073BD489
:101BB000091B01262846324600F018F9044606980B
:101BC00084422ED00991A969ED690C9800900C917E
:101BD000084629460B9A0A9B00F0ECF8002820D111
:101BE000EB680C980899079A9847002819D1204665
:101BF00009990C9A2B46FFF797FF11E0AC69ED6944
:101C00000C980090204629460B9A0A9B00F0D2F8C7
:101C10000028099E05D1EB6820460899079A984745
:101C2000064630460DB0F0BD05912020295C039199
:101C300001262E546868029030206860AA69E9691C
:101C40000C980090049210460C910B9A0A9B00F09D
:101C5000B1F80028E5D109960598011B0122284614
:101C600000F0C4F806460698864209D00B910C98FD
:101C7000C368049C20460899079A9847002801D019
:101C8000099ECEE730460B9922460C9BFFF74CFF8E
:101C90000028099EC5D1284620300399017002987A
:101CA00068600026BDE7D4D4F0B503AF8BB0091A45
:101CB00010296BD3C21C032301939A43121A914239
:101CC00064D38C1AA308059360D0042A5ED88518C3
:101CD0002146019B994304956D181C401146FFF75E
:101CE00053FE064628462146FFF74EFE8019304E29
:101CF000059A002A4CD00390C02A134600D3C02373
:101D000007A80499FFF752FE089A134601988343E7
:101D10000A98059009980490079907A8FFF746FECE
:101D200008988000079B19180A9802900998069055
:101D300000228B420DD00020102808D01D58AC097D
:101D4000ED43ED0925433540AA18001DF4E7103393
:101D5000EFE7100A15490A40084080181249484325
:101D6000000C0399401802990029C1D004468A004A
:101D70000021002A0ED0069B01CB06938309C043A5
:101D8000C009184330404118121FF2E7FFF7FCFD6D
:101D90000BB0F0BD080A054A114010404018024936
:101DA0004143080C0019F3E701000100FF00FF00A8
:101DB00001010101F8B504AF1C460E46054611208D
:101DC0000004824207D0336928461146984700280C
:101DD00001D00120F8BD002C05D0BA68F368284670
:101DE00021469847F8BD0020F8BDD4D4FEB506AF13
:101DF0002023C35C032B00D01A46D2B2930002A466
:101E0000E358E3180C469F461C0000001000000039
:101E1000160000001000000000240A4602E04A08F4
:101E2000491C4C080194541C416802918669C5699B
:101E3000641E09D02A693046029990470028F7D0DD
:101E400011200004019901E00199029803B0F0BD4E
:101E5000F0B503AF89B00D460346006999680129C2
:101E600002D1002803D176E0002800D19AE0009149
:101E70000492A818079011200104019358690B4699
:101E8000441C0026029531460893079A954234D0A7
:101E900000202956C8B2002901D46A1C2AE06B78B8
:101EA0003F2105910B401F210140DF281AD90391E2
:101EB000A9780691059A0699114006919B01069909
:101EC0005B18F02812D3E878059A10409A01101890
:101ED00003994907C90A40182A1D089B98423146B0
:101EE00008D10AE08801C018AA1C03E00398000387
:101EF0001818EA1C711B89180346641E0AD008983A
:101F00008342034615460E46BFD1049A029D019BAB
:101F1000009C1EE008988342009C03D1049A029D15
:101F2000019B16E0002E049A029D019B0AD0964266
:101F300006D2A8573F21C943884203DA002002E0B5
:101F40009642FBD12846002800D03246002800D017
:101F50000546002C26D00492A918DC6828462E4697
:101F60001D46FFF7A1FE844221D9211A00222846EE
:101F7000FFF73CFF11221204012490421ED007916A
:101F80000890A869E96905460691CB683146049A2C
:101F90009847002812D1089807992A46069BFFF710
:101FA000C3FD0AE09869D969CB68294604E0A869AD
:101FB000E969CB683146049A98470446204609B03F
:101FC000F0BDD4D4F0B503AF93B005930546866950
:101FD000C0690490C4683046A047012100284BD155
:101FE0000391B8680290296848070BD424497944C2
:101FF00001223046A04700282AD105982946029A96
:1020000090472EE001911F49794402223046A047B3
:1020100000281DD109A8012101702022AB5C0AA96A
:102020008B54089004980790069601980A901648D9
:102030007844119006A810902E1D5DCE0B900F963F
:102040000E940D930C920598029A9047002801D0A7
:10205000039911E01198C36810980C497944022241
:1020600098470028039907D1A869E969CB6808490E
:102070007944012298470146084613B0F0BDC04696
:10208000F7330000DB3300008C3300007D330000A9
:1020900076330000D0B502AFA2B00C4600680968E4
:1020A000CA0606D4890614D400782146FFF7E0FA60
:1020B0002AE001787F200F220A400A2A01D3572301
:1020C00000E030239A1802AB1A54401E0909F2D1DD
:1020D0000EE001787F200F220A400A2A01D337231D
:1020E00000E030239A1802AB1A54401E0909F2D1BD
:1020F000411C02A8FFF7BFF9034600910349794448
:1021000002222046FFF72AFD22B0D0BD8D3000000C
:1021100080B500AF00680A68D30604D4920606D4DE
:10212000FFF708FB80BD0068FFF7B4F980BD0068C9
:10213000FFF7D2F980BDB0B502AF0B4601460020D3
:10214000CCB201468A4204D05D5CA54203D0491C52
:10215000F8E71146B0BD0120B0BD80B500AF8142A7
:1021600007D3994203D81218091A104680BD0846B1
:10217000194600F001F8FEDE80B500AF00F001F86E
:10218000FEDE80B500AFFFF7EAF9FEDEE0B502AF94
:10219000BC68009400F002F8FEDED4D4F8B504AFB9
:1021A0001D4616460C4601210A020390214600F006
:1021B0006DF8BA68002808D1A64203D8A54201D814
:1021C000AE4214D9FFF7CBF9FEDE0346A04206D299
:1021D0000398C0564021C9438842EDDC00E0EBD0B3
:1021E0000092002203982146FFF7D0FFFEDE002E6A
:1021F00011D12E46029203982146324600F046F84D
:102200000246002810D1A24217D11F4878442B2142
:10221000FFF7AAF9FEDEA6422DD2039880573F2190
:10222000C9438842E5DAE5E7A24226D20398805600
:102230004021C9438842E6DC20E003988018002151
:1022400041560029BED5C9B2E029BBD3F029B9D384
:102250004278C3783F241C409206920B8078800617
:10226000000D101800194907C90A40181121090466
:102270008842A7D1C9E7BCD0BCE7C4D0029800907F
:10228000039821462346AFE7F4310000B0B502AF12
:102290000B46914212D90546D41E00D20024511C8F
:1022A00020462A46FFF759FF401E002905D0425616
:1022B000491E3F23DB439A42F7DB0B191846B0BD9A
:1022C000F0B503AF91B003910446007901250028D1
:1022D000284604D065712071204611B0F0BD0292ED
:1022E000BA6860792668317849070193009204D46E
:1022F000002841D03949794440E0002809D1B0692B
:10230000F169CB683A497944032298470028284666
:10231000E0D107A8012101702021725C08AB5A545A
:102320000690304878440F90F0690590B0690490A9
:10233000706809903068089070690D9030690C9051
:10234000F0680B90B0680A9004A80E900399029A66
:1023500000F076F800280DD104A823497944022220
:1023600000F06EF8002805D108A90198009A90475E
:10237000002828D02846ADE717497944002801D025
:10238000022200E00322B069F369DB689847002865
:102390002846029A9ED1B069F169CB6803999847A3
:1023A0000028284696D1B069F169CB680C49794478
:1023B000022298470199002828468BD108463146C9
:1023C000009A904786E70F98C3680E9807497944AA
:1023D000022298477EE7C04663300000E5300000E7
:1023E00029300000983000007B3000000B300000E6
:1023F000CE300000D0B502AF0446007961790029E3
:1024000016D0002801D0012011E02168087840078B
:1024100006D48869C969CB6807497944022205E076
:102420008869C969CB6805497944012298472071B8
:10243000411E8841D0BDC046C72F0000B82F000004
:10244000F0B503AF97B00A24159401230A931493AF
:1024500013941292002407910FAB16C306920E92AA
:102460000D940168039141680291806804900DA861
:1024700020300190059409940894002C069A099D37
:1024800000D09EE0AA4202D30798441900E000243D
:10249000561B64D3072E07D800218E425ED0605CA5
:1024A0000A284BD0491CF8E70995E01C0321884312
:1024B000A04201D1002512E0051BB54200D33546EC
:1024C0000020294622463346FFF747FE02460B46C8
:1024D0000A2011461A46FFF72EFE01282CD030465E
:1024E00008380C900B960C9885421BD861194968E6
:1024F000394A8A43374B5940384E891911404A1E90
:10250000914120466259344B9343324C62409219B8
:1025100013420A9A00D10A46002A04460B9E01D1B2
:102520000835E0E7AE424FD36119721B0A20FFF76E
:1025300002FE012811D14919069A099D4819451C26
:10254000A0D095429ED80799085C019909788842E5
:1025500098D100242E4609950CE0069A1546059858
:1025600000282ED1089890422BD0099501241646B8
:10257000089D059404980078002808D00298C36844
:1025800017497944042203989847002817D1089BDB
:10259000F21A0798C1189E4201D1002005E0501898
:1025A000401E03780A3B58425841049B1870029819
:1025B000C368039898470028089500D15DE70A98FA
:1025C00000E0002017B0F0BD28463146FFF7D4FDEB
:1025D000FEDEC0460A0A0A0A80808080FFFEFEFEF8
:1025E000E02C0000DCB504AF00220192802903D268
:1025F00001AA117001222FE0CA0A0AD13F220A4023
:10260000803201AB5A708909C0220A431A70022233
:1026100022E00A0C0ED13F220A40803201AB9A70B0
:102620000A0BE02414431C700905890E803159708F
:10263000032211E03F230B40803301AAD3700B0526
:102640009B0E803393708B039B0E80335370C902B3
:10265000490FF0311170042201A9FFF7F1FEDCBD32
:10266000D0B502AF88B0019002AC1822204602F02B
:1026700073FB01A8034979442246FFF7ABF908B080
:10268000D0BDC046722D000080B500AF0068FFF7D6
:10269000D7FE80BD80B500AF0068FFF7A3FF80BD07
:1026A000B0B502AF86B004686D461822284602F025
:1026B00053FB20462946FFF7D3FF06B0B0BD0021EB
:1026C000202903D000224254491CF9E77047D4D492
:1026D000D0B502AF9A4204D3D21ACC181AC0026005
:1026E000D0BD034878442321FEF73EFFFEDEC046FE
:1026F00028310000F0B503AFA5B008910790202560
:1027000000242846214602F0CFF90C940B940A9439
:1027100009940DA80690224E7E4431462A4602F0C6
:102720001BFB203615A8059031462A4602F014FB03
:1027300009AE5121304602F015FA0095304606994F
:102740002A46059B02F026FA1F220898401C00909A
:10275000019202920394079C611C3046134600F0DC
:1027600021F80122089800900192029203923046CB
:102770002146134600F016F81DAC2046294602F00B
:10278000BBFB0095304607992A46234602F012FA11
:10279000304602F0F3F902F093F925B0F0BDC046DF
:1027A000842D0000F0B503AFC7B003930A920991DE
:1027B000049078698001664979440C1806940BA846
:1027C000079020262146324602F0C6FA203413A88C
:1027D00005902146324602F0BFFA00251E951D9550
:1027E0001C951B951BAC51210891204602F0BAF9AB
:1027F0000096204607993246059B02F0CBF9069CCD
:10280000214680311FA80790324602F0A5FAA03475
:10281000214627A80690324602F09EFA329531955D
:1028200030952F952FAC2046089902F09BF9009621
:10283000204607993246069B02F0ACF933A8314690
:1028400002F05AFB3BA80696314602F055FB099868
:102850000A993A690792FA680892BE682C46A9421A
:1028600003D0025D651C002AF8D00023089D9D421C
:102870003DD0F25C5B1C002AF9D0A14247D0039CFA
:10288000224600F067F802460B4633A80A90001B68
:1028900020302146FEF754FF30462946079C224649
:1028A00000F058F802460B463BAE301B2030214664
:1028B000FEF746FF0020469045904490439043AD7C
:1028C0005121284602F04EF9069800900196029098
:1028D0001BA92FAA28460A9B02F094F904980146E6
:1028E0002A4602F077F9284602F048F928E0A1428A
:1028F00026D0039D2A4600F02DF802460B4633AC45
:10290000601B20302946FEF71BFF1BAD0EE0304652
:102910002946079D2A4600F01DF802460B463BACAF
:10292000601B20302946FEF70BFF2FAD20222846E2
:10293000214602F05BF9049801462A4602F04AF962
:102940001BA802F01BF92FA802F018F947B0F0BD40
:10295000242D000080B500AF8A4201D8114680BD09
:102960001046FFF709FCFEDEF0B503AF8BB0019215
:102970000C46029003AD20262846314602F0BCFAF0
:10298000284631462246019BFEF7DAFE0298294688
:10299000324602F0E1F90BB0F0BDF0B503AF91B0F3
:1029A00004465000402801D9012027E015460E4674
:1029B00001A8402102F0A0FA0020002D18D03F28E5
:1029C0001FD831784A090B09052A01D3573300E093
:1029D000303301AA13540F2319400A2901D3573168
:1029E00000E03031121851706D1E801C761CE4E737
:1029F000601C01A9402202F0AFF90020207011B044
:102A0000F0BD4021FEF7ABFEFEDED4D4E0B502AF50
:102A10000A78002A04D1491C402202F09DF98CBD9D
:102A20000348784401A9034A7A44FEF7D3FEFEDE48
:102A30000D2E0000B82B0000E0B502AF01680029A0
:102A400003D14268816810468CBD044878446946C9
:102A5000034A7A44FEF7BEFEFEDEC046E32D0000C8
:102A60009E2B0000BCB504AF934214D3002A09D0BA
:102A70008A4205D284563F25ED43AC4202DA0AE091
:102A8000914208D1002B0DD08B4209D2C45640256B
:102A9000ED43AC4206DCBC680094FFF777FBFEDE3A
:102AA0009942F8D18018991ABCBD80B500AF934205
:102AB00004D38B4205D88018991A80BD1046194658
:102AC00000E01846FFF758FBFEDED4D480B500AF17
:102AD0000846034979440222FFF7BAF980BDC0468F
:102AE000082B0000F0B503AF85B004460020207627
:102AF000D72189006218182803D000212150001D19
:102B0000F9E7002001920290507020461930FFF73B
:102B1000D6FD2546FA35039420463930012104912B
:102B20000224244E7E44FFF7CAFD002C18D028460C
:102B3000B04720200299295428462130B047284622
:102B40004130B04728466130B047A120049A504335
:102B500003990818DA30641EA135521C0492E2E78A
:102B60008F208000039C2018B047972080002018F9
:102B7000B0479F2080002018B047A7208000201871
:102B8000B047AF2080002018B047B7208000201841
:102B9000B047BF2080002018B047C7208000201811
:102BA000B047CF2080002018B047019802990170EB
:102BB00005B0F0BD97FBFFFFF0B503AF89B0044649
:102BC00008340020202803D000212154401CF9E7BC
:102BD00001AD202628462146324602F0BDF82046A7
:102BE0002946324602F0B8F809B0F0BDF0B503AF9F
:102BF000C1B0044620A8214600F09CFBB72080000D
:102C00002618219821280C940D9601D2032609E05C
:102C1000302801D8042605E0412801D3092000E02E
:102C2000052006462EAC48252046294602F064F9C8
:102C3000409500202A902AA8039040A80290019471
:102C40002024009420A83C4932460D9B02F04AF80B
:102C5000002801D0394C60E00D940EAC2EA9482517
:102C600020462A4602F082F82A980B902EAE304673
:102C700021462A4602F07AF83078302853D12EA81F
:102C80004178891F40294ED8807802284BD12EA840
:102C9000C678701E202846D8341D2EAD0421284643
:102CA000224600F051F80A900991285D02283AD195
:102CB000CF2080000C9908180890C72080000C18BD
:102CC0002EA831184A790592B11D8A1800F03CF8F7
:102CD000079006912046FFF7F2FC0D9DA91B2046A8
:102CE00000F043F80A9A099BFEF72AFD089C20464B
:102CF000FFF7E5FC0598291A204600F036F8079AF8
:102D0000069BFEF71DFD01200B990140D720800096
:102D10000C9A1154FD20C043441C20A8FFF74CFF1F
:102D2000204641B0F0BD064878442AA9054A7A44B5
:102D3000FEF750FDFEDEC0460106000002FF000067
:102D4000072B00002E2B000080B500AF8A4204D371
:102D5000482A05D84018511A80BD0846114601E09E
:102D600048211046FFF708FAFEDE80B500AF2129A2
:102D700003D240182022511A80BD20220846114655
:102D8000FFF7FAF9FEDE7047F0B503AF87B00C46E7
:102D90000178C0467944097949008F44030C141C1A
:102DA00025333B00401C0590314878440090314960
:102DB0007944102220E0401C05902F487844009070
:102DC0002E4979440EE0001D05902D48784400906E
:102DD0002C4979440FE0401C05902B487844009022
:102DE0002A4979440E2207E0001D059028487844BE
:102DF0000090284979440B2205AB2046FFF7E2F802
:102E000007B0F0BDA069E169CB6823497944082285
:102E10009847F5E7011D02910146083103910C30F6
:102E20000490A069E169CB681C4979441122984754
:102E3000014605A80022427101710594184E7E4496
:102E4000009618497944032402AB174D7D4422466D
:102E5000A847009615497944072203ABA847009676
:102E60001349794404AB2246A847FFF7C3FAC7E7E2
:102E7000E7F2FFFF412B0000D5F2FFFF212B0000FE
:102E800041F3FFFF062B0000B5F2FFFFE82A000028
:102E90001FF3FFFFCB2A00003A280000772A00002A
:102EA000CFF2FFFF6E2A000071F4FFFF5F2A0000DF
:102EB0005A2A0000F8B504AF0246FF205368182BC9
:102EC00014D10002009213680024142C11D01D5D4F
:102ED0001E19727812025219B578F67836027519F1
:102EE0002D04AA1812BA0A51241DEEE7C043401C53
:102EF00007E004251B19009A28C20968024A91427A
:102F000000D0F8BDC01CF8BD550A008080B500AFE8
:102F10000088FF221202904208D00C4A90420CD145
:102F20008869C969CB680A49794404E08869C96934
:102F3000CB6808497944162205E08869C969CB68DD
:102F4000054979440922984780BDC04601FF000029
:102F50004D290000572900002A290000401EC1B257
:102F6000172904D840B203497944085C7047FF2010
:102F70007047C046482A000080B500AF89B20022E1
:102F800001F084FE80BD80B500AF01F075FE411EEA
:102F90004842484180BDE0B502AFFFF7F4FF00288A
:102FA0000BD1684600210171C1700222827041700C
:102FB00060210170052101F055FE8CBDD0B502AF36
:102FC000FFF7CCFFC0B2401E072813D87844007921
:102FD0004000874403100F140F0F0F180E4C0121EF
:102FE000204601F069F8204601F046F80B48817947
:102FF00000290CD0D0BD084801F065F8D0BD0648C6
:1030000001F05DF8D0BD044801F05BF8D0BD0C3094
:10301000122101F071FFD0BD7402002000020020D7
:10302000DCB504AF0A79012A17D0CB787F241C4085
:10303000022A17D0042A14D1052C12D8104A1219CA
:103040004B791373412292006B469A8000908A1D3F
:103050000C48214600F04AFFDCBD891D094800F0FC
:1030600017FFDCBD062CFCD26000054A10180022B8
:1030700042828A1D0348214600F093FFDCBDC04612
:103080000002002074020020D0B502AF0B4A137872
:10309000002B00D0D0BD062393710A2313704B7808
:1030A0008C782402E3181BBA1B0C7D2B00D37D23E4
:1030B0005380CA1C1946FEF743FBD0BD0002002016
:1030C00080B500AFC0B201F0C1FDFEF748FAFEDEE8
:1030D000027813460B430370CBB2002A04D0002BB6
:1030E00011D0032B0DD016E0032B14D80021C046BD
:1030F0007B441B795B009F44010F11040021017088
:1031000009E0022108E000210170032A03D8D00061
:103110000349C14000E00621084670470121FBE752
:1031200006030405F0B503AFA1B00446FFF72BFF7B
:10313000002801D1FFF72FFF6846802101F0DCFE57
:1031400025460835FFF71FFF00282AD06E4680214C
:103150003046FFF711FF7078B17809020E18009819
:10316000FFF7FCFEC0B20F2811D016280AD0102895
:10317000E8D130BA000C0228E4D969462846FFF7A6
:103180004FFFDFE769462846FFF77EFFDAE70120B9
:103190000002B1B28142D5D16846C078FFF70EFF78
:1031A000D0E7134E3078072816D00A281AD1A18804
:1031B00020A85322027009BA0A0E8270090C4170CD
:1031C000032101F04FFD616800202A4600F014F849
:1031D00089B201F047FD05E0A188064878442A46F7
:1031E00000F0A8FD002020606060307021B0F0BDCC
:1031F000000200202909000080B500AF814209D3F8
:1032000041239B00994203D81218091A104680BD29
:1032100008461946FEF7B0FFFEDED0B502AF0A46FB
:103220004121890043689C08402C0ED8C318140A19
:103230001C7243685B1C8B4207D2C1180A7241683A
:10324000891C4160FFF76EFFD0BD1846FEF787FA74
:10325000FEDED4D480B500AF0B68042B05D100216D
:103260000E4A7A440260416080BD0A7B002A03D086
:10327000052300F015F880BD052BF0D0062B04D1F6
:10328000002101600449818080BD4A7B8B7B1B0249
:103290009A180723EDE7C046016E00004E27000094
:1032A000B0B502AF0446002A04D00D46991828682C
:1032B000814204D9002020600448A080B0BD0835B8
:1032C00018462A46FFF798FF03C4B0BD016E000000
:1032D000B0B502AF0B4641218900002A0BD04468EB
:1032E0008C4209D204191D7825724468641C44601C
:1032F000521E5B1CF1E7B0BD2046FEF730FAFEDE41
:10330000F0B503AF91B004460020402803D000215F
:103310002154401CF9E701AD40262846214632469B
:1033200001F01AFD20462946324601F015FD11B084
:10333000F0BDD4D4F0B503AF95B003910546044673
:10334000083420262046314601F0D6FD6E6051201B
:10335000287004AD4021284601F0CEFD00260096DD
:103360002120062203992B4601F060FC149620359B
:1033700003951148784402900398067004A821210F
:10338000202522462B4601F0BFFC14AB20460299B3
:103390002A4601F0C5FC761C14980028ECD5074A93
:1033A0007A44202120460B4601F0C0FC04A8FFF718
:1033B000A7FF15B0F0BDC046C8200000BC2000002B
:1033C000F0B503AF87B001AC0225A582029301924C
:1033D000094C03AD13C5BD68002D07D081256D00D4
:1033E00001AEB5820293019203AA13C201A800F0B4
:1033F0002DFA07B0F0BDC04680000B00B0B502AF9B
:103400000446FFF7C0FD002801D1FFF7C4FD651C8D
:10341000FFF7B9FD00280DD004212846FFF7ACFDC9
:1034200028780528F4D1207941082046FFF750FE7E
:10343000C0B2B0BD0620B0BD80B500AF0248784430
:1034400000F0ACF980BDC046C6240000BCB504AF96
:103450000C460546FFF7F0FF684600210171009118
:103460002846214600F00AF86846FFF7C7FFC0B2B9
:103470000628F9D0C01E0228F6D8BCBDBCB504AFE2
:103480000C460546FFF7D8FF002000900122284691
:103490002146FFF795FFBCBDD0B502AF0446FFF74C
:1034A000CBFF204600F054FA0448784400F0A2F91B
:1034B0000348784400F09EF9D0BDC046882400003F
:1034C0008A240000F0B503AF85B00446FFF7B4FFCF
:1034D0006068801C029002A80025019421462A46BB
:1034E00000F046F803A8057103951F4E7E441F4C5B
:1034F0007C4403A8FFF782FFC0B20628F9D0052854
:10350000F7D8C04678440079400087440307022179
:10351000180BEEE7304600F06DF9EAE7204600F0C0
:1035200069F9E6E70299881E854218D0491E8D4246
:1035300015D002A801992A4600F01AF8D9E72046CA
:1035400000F0EEF90298401E8542F2D26D1CF0E7C1
:10355000304600F0E5F9002DEBD06D1EE9E7291AA1
:103560004842484105B0F0BD6424000056240000E4
:10357000F0B503AF87B014460D460646FFF75CFF73
:103580003068811EA14210D1A968EA681F4B7B44B4
:1035900002A80546019450CB50C5019C1B882B8086
:1035A0000692059100F03AF820E0401EA04210D1AA
:1035B00029696A69174B7B4402A80194044660CBD1
:1035C00060C41B882380019C0692059100F026F8B8
:1035D00010E06968A14215D9E1002A6850585118D5
:1035E0004968002200920122FFF7EAFE0848784469
:1035F00000F000F9002C03D00748784400F0FAF8F6
:1036000007B0F0BD2046FEF7AAF8FEDEEA23000070
:1036100094230000D62300009C230000F0B503AFE4
:1036200085B015460C460146027A02A80272CA8885
:10363000C2808A88828049884180002D01D0122171
:1036400000E03C21018000F0D5F8002D07D0012DCD
:1036500007D103CC002200920122FFF7B1FE05B092
:10366000F0BD0120162200F09BF905460026102E21
:10367000F5D0A059A11949680022009203222B46D7
:10368000FFF79EFE08360B35F1E7D4D4F0B503AF53
:103690008DB00B4641681A01144610348C420794D1
:1036A00000D3079106930568079B934254D3002AE1
:1036B0000BD08A4207D2AB5605933F23DB43059ECE
:1036C0009E4202DA48E0914246D1079B002B07D088
:1036D000A14205D9079BEB564024E443A3423BDDBE
:1036E00005908468207D03920495258A294600F080
:1036F00048F90290668A03CC3246083C00F050F943
:1037000008A9CE818D814881029808810120088214
:103710001548099000200890084600F03FF80399EA
:103720000798401A049A5118A160E060069D002D88
:1037300003D01048784400F05DF8681C0599C9680A
:103740000968884203D20A48784400F053F82046BA
:1037500000F07CF80DB0F0BD044878440090284695
:10376000079BFEF713FDFEDEFFFFFF004622000071
:103770003A22000062220000BCB504AF044601A852
:103780001C2585700021417065210170032101F025
:1037900069FA2046294601F065FABCBDD0B502AFF2
:1037A00088B00446FFF7EFFB002808D00020049003
:1037B00003900290019001A81021FFF7DDFB01A802
:1037C000002181760183418103210170217C0173F5
:1037D000E1890181A189C18061898180218941803C
:1037E000617C417006CC06920591FFF7C5FF08B0D9
:1037F000D0BDD4D4D0B502AF88B00446FFF7C3FB28
:10380000002808D00020049003900290019001A8A5
:103810001021FFF7B1FB01A8002101830173418151
:1038200005220280227A8276E2880281A288C28002
:103830006288828022884280069103490591FFF7C1
:103840009BFF08B0D0BDC046FFFFFF00F0B503AF3F
:103850008DB00546FFF797FB002808D000200890A0
:1038600007900690059005A81021FFF785FBEE68EC
:10387000287D697D0091002402900128204604D112
:1038800007217143012000F07CF80190039603CDDD
:10389000083D04956E8A324600F082F805ADAC769C
:1038A0000099002901D01B4900E0194929832C7394
:1038B0006C812E810299022903D00621039A51437B
:1038C00001E08021039AE98001996980072129801C
:1038D0008019401EA8800A940F48099010461C3099
:1038E00001BA16460A0E0CA88270090C41706521B7
:1038F00001700321094C7C44A0471C212846A047A5
:103900000498806800F036FAB1B2A0470DB0F0BD5F
:103910000A80FFFF0880FFFFFFFFFF006B1300001E
:10392000FEB506AF014601A801220282CA88C28103
:103930008A8882814A8842810988018103490291EB
:1039400000210191FFF72AFF06B080BDFFFFFF00B5
:10395000F8B504AF044601201A2200F021F805460C
:103960000C3400261A2E0BD0AB192168201F0068DA
:10397000627A00920322FFF723FD0D361834F1E737
:10398000F8BDC0B2002804D0012804D17E20401A1E
:103990007047022070478020401A40087047D4D4F6
:1039A000D0B502AF830002A4E358E3189F46C04697
:1039B0002000000010000000180000001E000000A1
:1039C0002020801A4008D0BD2020801AD0BD084693
:1039D000D0BD044601F066F9214600F057F8D4D472
:1039E00070B58CB062B60024204601F065F9204D18
:1039F0006E46304600F03EF8B08580B2052824D0EF
:103A0000002828D1684601F057F90A9001F040F8E3
:103A10000D2828D22021284601F06EFA00F020F966
:103A2000002000F091FF012000F08EFFFCF74AFB20
:103A300001F038F96946884202D10A9801F03CF950
:103A40006846808D0028D3D010E0684684850A98A7
:103A500001F032F9CCE7684684850A9801F02CF928
:103A600020460CB070BDFF2001F0F0F8FFF7B1FF69
:103A700000020020F0C041464A4653465C466D466F
:103A800076467EC02838F0C80020704710307CC8C9
:103A900090469946A246AB46B54608C82838F0C8B5
:103AA000081C00D1012018477F210140052903D8B7
:103AB00002484018007B7047002070470002002039
:103AC0007CB5FF2A1DD815460E460446684642714D
:103AD000202101715021017080212143C170D11C2E
:103AE0008170090A4170062101F0BCF83046294670
:103AF00001F0B8F86006000E024908187D2109019E
:103B000041827CBD0002002080B50A460146822029
:103B1000FFF7D6FF80BDD4D4FEB502920446988844
:103B2000019018680090484FB9420FD00D46464E9C
:103B300040273046394601F069F9029A402A00D3FD
:103B40003A463046294601F016F93F4FB87800282A
:103B500022D0012829D002282ED0052863D1387917
:103B6000F97809020818394C21680025814261D191
:103B70002068002825D00298401F82B234490B6883
:103B8000934200D2086881B23B2900D33B2085B222
:103B900030480068791D38E00025BD717D713D71A8
:103BA000FD7040213846A04744E0F81C042101F094
:103BB000C3F84021384601E023484021A0470025B2
:103BC00038E0B87979790902091823480160016859
:103BD000019A91422ED801681D48016079783A789F
:103BE000120251181D4A11601A49009A0A600268AF
:103BF0000299C91F8BB29A4200D2016888B2392853
:103C000000D339218DB2F91D00982A4601F0B3F88E
:103C10000F480168491B01600E480168491901609D
:103C20002068401C20600A480068002801D0012557
:103C300007E00225054800210160064801600448AC
:103C400001602846FEBDC046200200206002002020
:103C5000680200206C020020640200207002002034
:103C60000348002101600348016003480160704778
:103C7000600200206C02002068020020F8B5274A8C
:103C80001568274B1968002921D0002D1FD00090FE
:103C9000264C671D3B263846314601F0B7F8204ACE
:103CA0000520A07022480168090A21700068607030
:103CB0001C490868000AE0700868207109681068EB
:103CC00000290CD03B2800D81668384612E0154869
:103CD000002101601160144801701960F8BD392895
:103CE00001D9392600E016681068000A6071106872
:103CF000A071E01D2946324601F03DF8084B009ABC
:103D000006491868801B1860A819086005490868EA
:103D1000401C0860054840219047F8BD6C02002017
:103D20006802002060020020000200202002002023
:103D30007002002010B500290AD0064B00241C6038
:103D4000054B1960054B1A60054A1160FFF796FF95
:103D500010BDC04660020020680200206C020020F6
:103D6000640200207A460249C91C891A401A704729
:103D7000653DD0C080B50449884204D303498842D8
:103D800001D2FFF7EFFF80BD0000D0C0005BD0C0C4
:103D9000F8B5002814D015460E4604460746DC3711
:103DA00045208100204601F0A7F8002E00D07E615A
:103DB000257001203870204600F0A4F90020F8BDDD
:103DC0000220F8BDB0B50446DC20012121541720A3
:103DD000C543002D0ED060194321890040580028AA
:103DE00006D04068FFF7C6FF02462179204690477B
:103DF0000835EEE7204600F0B8F9204600F08CF9CF
:103E00000020B0BD002A08D003460020022B03D8B2
:103E1000DB00C918F423CA5070470220704780B5F0
:103E200000F089F9002080BDF8B50C460546002653
:103E3000F427032E10D02846314600F05DFA002802
:103E400007D0E8590068FFF795FF0246284621464B
:103E500090470837761CECE70020F8BDF8B50C4613
:103E600005460026F427032E10D02846314600F0E0
:103E700043FA002807D0E8594068FFF77BFF024665
:103E80002846214690470837761CECE70020F8BD0D
:103E900070B504460646D43635461435284600F03B
:103EA0005AFCD42001212150EE20205A7060317D2F
:103EB0001F200840022808D001280BD000280ED16E
:103EC0002046294600F023FA0EE02046294600F05D
:103ED000C1FB09E02046294600F098FB04E0802061
:103EE0000140204600F07CF9002070BDF0B585B09F
:103EF000029303920446DC300490019100291CD007
:103F00000025F427032D49D02046294600F0F4F976
:103F100000280FD0E059806900280BD00499097857
:103F2000032907D1FFF726FF064620460199039A89
:103F3000029BB04708376D1CE4E720468030416D96
:103F400003292BD10068E16F81420AD9091AE16780
:103F5000814200D301468AB22046039900F03DFC1D
:103F60001CE00025F426032D15D02046294600F03C
:103F7000C3F900280CD0A0590069002808D0049982
:103F80000978032904D1FFF7F5FE0146204688474A
:103F900008366D1CE7E7204600F026FC002005B03F
:103FA000F0BDF8B504460746D437009100291AD071
:103FB0003D460026F427032E5CD02046314600F013
:103FC0009BF900280CD0E0594069002808D0297AD4
:103FD000032905D1FFF7CEFE0246204600999047FF
:103FE0000837761CE7E7386802283DD1E069256A82
:103FF000A84209D9401BE061F96B4919F96382B203
:10400000204600F0DCFB2FE0A6693046294600F090
:10401000C0FE00290CD1AE420AD37868864207D28E
:104020000025204629462A4600F0C9FB7D601BE09A
:104030000025F426032D14D02046294600F05CF913
:1040400000280BD0A059C068002807D0397A03296E
:1040500004D1FFF78FFE01462046884708366D1CC5
:10406000E8E7204600F0CCFB387B012802D1394636
:10407000002038730020F8BD70B50446DC20012113
:10408000215480204021215021620025F426032D57
:1040900010D02046294600F02FF9002807D0A0595B
:1040A0004068FFF767FE02462179204690470836B0
:1040B0006D1CECE7002070BD0174002070470020EB
:1040C00070470020704770B50446DC20205C032850
:1040D00015D10025F426032D11D02046294600F0E5
:1040E0000BF9002808D0A059C069002804D0FFF7B8
:1040F00041FE01462046884708366D1CEBE700204C
:1041000070BDD4D40249002008600249086070479D
:104110008C030020880300201CB501A80221C17077
:1041200001218170002444704F210170042100F0AE
:1041300099FD20461CBD7CB56D4600242C710320E2
:10414000E8700220A8706C704F262E70052128465A
:1041500000F088FD0120E870A8706C702E700421BA
:10416000284600F07FFD20467CBD1CB501A8022139
:10417000C17001218170002444704F21017004211D
:1041800000F070FD20461CBD7CB51348002404607F
:10419000124804606D46AC716971012129710420D7
:1041A000E8700526AE706C704F242C70002A0AD07F
:1041B000032A05D0022A05D0012A06D1014602E0D1
:1041C000022100E00321684681716846C37108211D
:1041D00000F048FD00207CBD880300208C030020F7
:1041E000BCB50D4668460024447140210171C5707C
:1041F00003218170447050210170062100F032FDCE
:10420000280601D5064800E0044801687F221540D1
:104210000122AA400A4302602046BCBD8C03002054
:1042200088030020BCB50D466846002444718021F7
:104230000171C57003218170447050210170062105
:1042400000F010FD280601D5064800E0044801688A
:104250007F2215400122AA40914301602046BCBD47
:104260008C03002088030020080601D5054800E0E3
:10427000034802787F2001400120884010407047A9
:104280008C030020880300201CB5684601710321BF
:10429000C17002218170002444704F2101700521FA
:1042A00000F0E0FC20461CBDBCB51C461546684627
:1042B000437120220271C17050210170D91C81709C
:1042C000090A4170062100F0CDFC2846214600F085
:1042D000C9FC0020BCBD1CB5684642713022027189
:1042E000C1700321817000244470502101700621A7
:1042F00000F0B8FC20461CBD022906D8C9004018B1
:10430000F4214058411E884170470020704780B515
:104310004A78002A0ED0012A0FD0032A10D0052A8D
:1043200011D0092A12D0082A13D0062A14D100F07D
:1043300017F813E000F0FCF810E000F03AF90DE097
:1043400000F01AF90AE000F082F807E000F0A2F8A5
:1043500004E000F0D6F801E000F054F9002080BD40
:10436000BCB50D46044601A8002101802046F0306E
:104370006B881A0A012A26D0022A2DD0032A0AD0D5
:10438000062A31D0072A16D00F2A30D10068C0691A
:1043900000281AD12BE0D9B2052949D001294AD0E9
:1043A00002294BD003294CD004294DD000291ED11D
:1043B0000068406809E0217C002918D14068002885
:1043C00015D0006B1EE000680068FFF7D3FC0246C2
:1043D000207C01A990471AE04068002818D0217C71
:1043E00000290ED0C06A0DE0217C002904D02046AF
:1043F000294600F007F9BCBD40680028F7D0406BA3
:1044000000E0806AFFF7B6FC014601A88847014634
:1044100001A80288002AEED0E8880028EBD082426A
:1044200000D3024601A80280204600F0B2F9BCBDCC
:1044300000688069C9E700688068C6E70068C068EE
:10444000C3E700680069C0E700684069BDE770B570
:1044500004468888002807D1C888002804D1264649
:10446000DC363078032803D1204600F0CBF870BD4D
:1044700088787F250540B57020462946FFF704FF60
:10448000204600F0B1F9002D01D0022000E001200B
:10449000307070BD70B50D4604468E78022E1CD269
:1044A000DC20215C2046DC30032906D0022914D10F
:1044B000002E22D00321017008E0002E12D0606887
:1044C000B0421AD0C1B22046FFF7C8FC6660204651
:1044D0003146FFF7A9FC02280FD12046294600F0FB
:1044E00091F870BD002161600221017020463146C3
:1044F000FFF7B4FC204600F077F9204600F074F98D
:1045000070BD80B5CA88012A0AD1DC22825C032AE8
:1045100009D0022A04D1002181600146083103E05C
:1045200000F070F880BD011D012200F032F980BD5D
:10453000B0B50446DC20205CFE220240022A0FD1E6
:104540002046DC300121E16025460C3580680028DA
:104550000AD0204600F054F9E1680220084304E044
:10456000204600F04FF8B0BD0320E0600222204654
:10457000294600F00EF9B0BDB0B5044648880128C0
:1045800016D10D46E42001212150287902280CD8AB
:10459000C0002018F4214058002806D08068FFF79A
:1045A000E9FB0246204629469047204600F01CF9C8
:1045B000B0BDB0B50D460446DC20205CFE210140B4
:1045C00002291AD1688801281BD12046DC3000213D
:1045D0008160287902280CD8C0002018F4214058A6
:1045E000002806D08068FFF7C5FB02462046294612
:1045F0009047204600F0F8F8B0BD2046294600F06C
:1046000001F8B0BD80B500F0BAF880BDB0B50D4678
:104610000446DC20205C032816D12879022813D810
:10462000C0002018F421405800280DD08068FFF702
:10463000A1FB0246204629469047E888002807D17A
:10464000204600F0D1F803E020462946FFF7DAFFC4
:104650000020B0BDBCB50D46044609797F20084056
:10466000072804D320462946FFF7CCFF71E0022932
:1046700012D82A7860231340202B0DD1CA00A2182B
:10468000F423D258002A07D09068FFF773FB024644
:104690002046294690475CE06A78002A0AD0012A21
:1046A00011D0032A55D1DC20205C03281AD002281F
:1046B0000FD0D7E7DC22A25C032A2ED0022AD1D168
:1046C00000280BD145E0DC22A25C032A31D0022A6B
:1046D000C8D180200A460243802A3AD02046FFF7FC
:1046E0007FFD36E06888002807D1802008438028B5
:1046F00003D02046FFF774FD2979022926D8C80087
:104700002018F4214058002820D08068FFF732FBA1
:10471000024620462946904718E02046FFF7A4FDB0
:10472000411E884101A908800222204600F031F88C
:104730000FE06A88002A0CD1002807D02046FFF736
:1047400071FD2879022801D8C000D9E7204600F081
:104750004BF80020BCBD0A7802704A7842708A7813
:10476000CB781B029A1842800A794B791B029A185F
:1047700082808A79C97909028918C180704710B589
:1047800004468021FFF72CFD00212046FFF728FD7D
:1047900010BDB0B50C46D421022343508261C261E2
:1047A0000146D431CC63016A914200D80A4693B2E3
:1047B000002529462246FFF777FD2846B0BDB0B553
:1047C0000C46016A914200D80A4693B20025294658
:1047D0002246FFF769FD2846B0BD10B500242146EA
:1047E000FFF779FD204610BD10B5D42104224250B8
:1047F0000024214622462346FFF756FD204610BDE1
:1048000010B5D42105224250002421462246FFF74C
:1048100062FD204610BDD4D40146EC20064A125C4D
:104820000020002A01D0034600E009230B80002A63
:1048300001D10248784470477402002094110000AE
:104840000146EC20064A125C0020002A01D00346F3
:1048500000E022230B80002A01D1024878447047EF
:10486000740200207511000080B5022903D10348AD
:104870007844FFF703FA002080BDC04695F2FFFFA1
:1048800070B502291CD11C46154602214022FFF7B3
:1048900022FD0C4EB079002812D10220FFF704F956
:1048A00002460A48784429462346FFF735F902288C
:1048B00006D1072030700120B07103480068708075
:1048C000002070BD000200206402002061F2FFFFA2
:1048D00012200880014878447047C04676110000D5
:1048E00004200880014878447047C04678110000D1
:1048F0000E200880014878447047C0466C110000C3
:104900000E200880014878447047C0466A110000B4
:104910000A200880014878447047C04668110000AA
:104920000E200880014878447047C0464A110000B4
:104930000E200880014878447047C0463A110000B4
:10494000002008807047D4D4B0B5054645208400C7
:104950001248214600F0D0FA11480C30122100F024
:10496000CBFA002D15D00D4D2846214600F0C4FA93
:104970000C497944002428462246FFF709FA0A4ADE
:104980007A4420462946FFF73DFA2846FFF747FAC2
:10499000B0BD0248FFF716FAB0BDC0467402002051
:1049A00000020020821000009410000029210180E4
:1049B000014878447047C046D61000000A210180A3
:1049C000014878447047C046F2100000FEB50E461C
:1049D000054602A80024048001A80470097860201C
:1049E000084010D0202837D1707801460A390229B2
:1049F00032D302281BD0032819D028463146FFF7AE
:104A000001FE022428E070780B2813D00A280ED06B
:104A1000062821D1F078002421280FD02228224610
:104A2000214616D102AF3846FFF70AFF0AE001A976
:104A300001220EE02846FFF7D7FE0DE002AF384610
:104A4000FFF7EAFE01463A88F088824200D3024628
:104A50003A802846FFF79DFE2046FEBDF8B5044685
:104A600082210326402532462B46FFF78DFB022785
:104A70002046394632462B46FFF786FB204639460C
:104A80002A46FFF728FC0020F8BD00207047D4D448
:104A9000F8B5002002900190024801A900F018F931
:104AA00004B080BD38010060F8B501910090034862
:104AB000694600F015F904B080BDC046F1120160EE
:104AC000E0B5002001900248694600F009F98CBD6C
:104AD00017B60060FEB500AF0FC70348694600F087
:104AE000FFF806B080BDC046CD140160F8B50021C6
:104AF00002910190024801A900F0F2F804B080BDD3
:104B000061BC0060FEB501AB07C3034801A900F01A
:104B1000E7F806B080BDC0465AC30060F8B500ABE8
:104B200007C30348694600F0DBF804B080BDC04607
:104B300040CB0060F8B5019100900348694600F051
:104B4000CFF804B080BDC046B0CD0060F8B501918B
:104B500000900348694600F0C3F804B080BDC04629
:104B6000541C0160F8B5019100900348694600F0BB
:104B7000B7F804B080BDC046D6F10060F8B500219A
:104B800002910190024801A900F0AAF804B080BD8A
:104B9000CEF2006010B588B00A9C0594049303928D
:104BA00002910190024801A900F09AF808B010BDE6
:104BB00069F3006010B588B00A9C059404930392D1
:104BC00002910190024801A900F08AF808B010BDD6
:104BD000B9F50060FEB501AB07C3034801A900F0B9
:104BE0007FF806B080BDC046020E0160FEB501AB85
:104BF00007C3034801A900F073F806B080BDC046A2
:104C00004D27016010B58AB00E9C07940D9C069448
:104C10000C9C05940493039202910190024801A90F
:104C200000F05EF80AB010BDA848016010B588B069
:104C30000A9C05940493039202910190024801A9F1
:104C400000F046F808B010BDBA53006084B00021EF
:104C500002910190024801A900F03AF8FEE7C0462F
:104C6000BE9A0060F8B5019100900248694600F0D4
:104C70002FF88FBD81830060E0B5002001900248CD
:104C8000694600F025F88CBDBB840060FEB501AB21
:104C900007C3034801A900F01BF880B206B080BD2D
:104CA000E4850060E0B5002001900248694600F00C
:104CB0000FF88CBDB1870060F8B50021029101901A
:104CC000024801A900F004F804B080BD060B0160A1
:104CD00001DF002900D170470846FEF77AFED4D4E0
:104CE00001DF704703B401482FE0C0461500000003
:104CF00003B4014829E0C0461B00000003B401488A
:104D000023E0C0463200000003B401481DE0C04665
:104D10003300000003B4014817E0C046440000001F
:104D200003B4014811E0C0464700000003B4014845
:104D30000BE0C0464B00000003B4014805E0C0464C
:104D40005800000003B40248FFE702490847C04684
:104D5000710000000100120080B500AF00F022F8E1
:104D600080BD80B500AF00F00BF880BD80B500AF0E
:104D700000F01DF880BD80B500AF00F023F880BDC5
:104D8000D0B502AF144600F062F8002C00D02160CC
:104D9000D0BD00B581B06A46FFF7E3FF009901B0CE
:104DA00000BDFEDE80B500AF00F0B0F880BD80B57C
:104DB00000AF032A03D908C908C0121FF9E7FFF79B
:104DC000F1FF80BD80B500AF00F0E9F880BD80B58F
:104DD00000AF0B4611461A4600F08CF980BDD0B5E5
:104DE00002AF1306D2B21404E31814021B199B1865
:104DF000032902D908C0091FFAE7FFF7E8FFD0BD71
:104E000080B500AF0022FFF7E2FF80BD80B500AFA4
:104E1000FFF7F6FF80BD80B500AF0022FFF7DFFF90
:104E200080BD80B500AF0022FFF7D9FF80BDD0B5AF
:104E300002AF0246002010231446DC40A14200D8F5
:104E4000C018A14200D822465B08F5D1D0BDF0B50C
:104E500003AF85B00446884201D2002148E00E46E7
:104E60002046FFF7E4FF1F22049001461140012372
:104E70001846884035468D40611BB14202D20C462F
:104E8000014635E02C46049D02930392002C04D485
:104E9000009401900C46014614E0640800940C1B39
:104EA0002B466B1E1D46039A1340029A9A40002C13
:104EB000019200DA0022002C00DA0C461146014370
:104EC000B44215D3029A0098121A28462B46039E24
:104ED000002B05D06400151900D42C465B1EF7E7A3
:104EE00030402246C2400198401E204001431446F3
:104EF0000846214605B0F0BD80B500AFFFF78BFF37
:104F000080BD80B500AFFFF78CFF80BDF0B503AF6B
:104F100086B00F2A0ED94442032304931C40034653
:104F2000051908460393AB4206D206781E70401C52
:104F30005B1CF8E7034628E0121B02921046049A15
:104F4000904301902B180E19B007009614D0F4006E
:104F500018206142044005940140964304CE9D42CE
:104F60000CD20598C24010CE20468840104301C59F
:104F70002246F4E702CE02C59D42FBD3029A049872
:104F8000024001980099091803989C18A34204D282
:104F90000A781A70491C5B1CF8E706B0F0BDF0B542
:104FA00003AF87B0431A93421AD28D1883180F2A81
:104FB00000D880E005950290032610461D46B543B3
:104FC0008818441E184630400390404204900696CC
:104FD0009D4216D226785B1E1E70069E641EF7E761
:104FE0000F2A36D90392444203220692144005192F
:104FF0000E460346AB422ED232781A70761C5B1CEA
:10500000F8E70398121A1046B0432B1A4042019059
:105010000598049C0419A007039200943CD0E20078
:105020001820214654420240059204400494084648
:10503000B043061F0268059CAB4235D204988240FB
:1050400031680846E04010432D1F2860361F0A468D
:10505000F2E7034644E002900398001B0390069A8F
:10506000904304902B180E19B00701962CD0F40031
:1050700018206142044005940140964301CE144635
:105080009D4227D2059AD04010CE22468A40024344
:1050900004C52046069CF3E75018001FAB4203D21C
:1050A00001682D1F2960F8E7039A069802400198CD
:1050B00000990D1802989C1A691E9C4218D20A7811
:1050C0005B1E1A70491EF8E714469D4202D202CEBA
:1050D00002C5FAE7039A2240049801990918029838
:1050E0009C18A34204D20A781A70491C5B1CF8E78A
:1050F00007B0F0BDFEB506AF0F2A0BD9444203231B
:1051000002931C40009404190346A34204D2197070
:105110005B1CFAE7054618E00190C8B20823202B73
:1051200006D218251D400646AE4030435B00F6E728
:10513000009BD21A1346029DAB43E518AC4201D244
:1051400001C4FBE7029802400198AA18954202D2D6
:1051500029706D1CFAE7FEBD872DD0C0010000004C
:10516000010000007515D0C0872DD0C002000000DE
:10517000020000000D2FD0C05320542041205220A7
:105180004B204E20452054413031000102040330B1
:1051900078303030313032303330343035303630B2
:1051A00037303830393130313131323133313431D7
:1051B00035313631373138313932303231323232BD
:1051C00033323432353236323732383239333033A3
:1051D0003133323333333433353336333733383393
:1051E0003934303431343234333434343534363481
:1051F0003734383439353035313532353335343567
:10520000353536353735383539363036313632364C
:105210003336343635363636373638363937303732
:105220003137323733373437353736373737383722
:105230003938303831383238333834383538363810
:1052400037383838393930393139323933393439F6
:105250003539363937393839395061727365496EA5
:10526000744572726F7220202020536F6D655A65ED
:10527000726F6B696E644E6F6E654E65674F7665D3
:1052800072666C6F77506F734F766572666C6F776E
:10529000496E76616C69644469676974456D7074C0
:1052A00079557466384572726F7276616C69645FA5
:1052B00075705F746F6572726F725F6C656E0101FD
:1052C00001010101010101010101010101010101CE
:1052D00001010101010101010101010101010101BE
:1052E00001010101010101010101010101010101AE
:1052F000010101010101010101010101010101019E
:10530000010101010101010101010101010101018D
:10531000010101010101010101010101010101017D
:10532000010101010101010101010101010101016D
:10533000010101010101010101010101010100005F
:10534000000000000000000000000000000000005D
:10535000000000000000000000000000000000004D
:10536000000000000000000000000000000000003D
:10537000000000000000000000000000000000002D
:1053800002020202020202020202020202020202FD
:1053900002020202020202020202020202020303EB
:1053A00003030303030303030303030303030404CB
:1053B0000404040000000000000000000000D4D439
:1053C000872DD0C00C000000040000004124D0C094
:1053D000E525D0C06126D0C0207B0A3A202C0A2CBB
:1053E00020207B207D207D280A2829D4872DD0C02D
:1053F00004000000040000008926D0C09526D0C01B
:10540000A126D0C063616C6C656420604F707469C4
:105410006F6E3A3A756E77726170282960206F6EF0
:10542000206120604E6F6E65602076616C7565D47A
:10543000872DD0C008000000040000006917D0C00C
:10544000F80000000000020EFFFFFFFFFFFFFFF764
:1054500038A13B4B920E9411AE6DA5F40B0358B1DD
:105460000800000000000010FFFFFFFFFFFFFFFF2C
:10547000B781126DCAE7B2321E66A241ADC64D2F8A
:10548000000000000000000000000000000000001C
:1054900000000000000000000000696E766F6B6580
:1054A000049EE3EBA8C1600700EE1B87EB599F1633
:1054B000716B0B1022947733551FDE4050CA68047D
:1054C00003CA0CFE4B3BC6DDF346D49D06EA0ED361
:1054D0004E621062C0E056C1D0405D266E10268A32
:1054E0000234287DCBAFFE7F969C748655FCA9E5DF
:1054F0008FA8120B6D56EB0C1080D17957EBE47B23
:1055000003B056F100F96FB21E889527D41F4E39AB
:10551000940135DD7A6C94CC6ED0268EE89E5615BB
:1055200004FA56F376C83DB33F9DAB2656558F33EC
:1055300099099EC1DE5E3018B7A6932DBA8AA3786A
:1055400003FA0984C931C9E38113E0C0E47E440150
:10555000562761F92A7A23B45168F4E80FF5B54D5E
:1055600004BA4CC166BE8DEC764910F75B45F74B2B
:1055700040C690C74709E90F3AA372F0BD2D69975D
:105580000040301CF5C1751F4B971E46C4EDE85F07
:10559000CAC5C59A5CE5AE7C48151F27B24B219C55
:1055A000054302DCB0E6CC1C6E44CCA8F61A63BB03
:1055B0002CA65048D53FB325D36FF12C49A58202C4
:1055C00001B77B3E37D13504B348046268D8AE25B5
:1055D000CE98AD783C25561A879DCC77E99C242639
:1055E0002829D4D4872DD0C000000000010000007D
:1055F000CD2AD0C0872DD0C00800000004000000D4
:105600006917D0C054782068617368207265766924
:1056100065773A7372632F646973706C61792E7267
:10562000735369676E3F526576696577204D756C77
:10563000746963616C6C2054785265766965772073
:1056400054784163636F756E743A546F6F53686F2B
:105650007274D4D41356D0C00E0000002A0000008B
:105660001D0000001356D0C00E0000002A000000EC
:10567000270000001356D0C00E0000002A000000D2
:10568000330000001356D0C00E0000002A000000B6
:105690003F000000436F6E6669726D4D617846652C
:1056A000653AD4D41356D0C00E0000003500000077
:1056B0001C0000001356D0C00E0000003500000092
:1056C000260000001356D0C00E0000003500000078
:1056D000320000001356D0C00E000000350000005C
:1056E0003E0000004E6F6E63653AD4D41356D0C0AE
:1056F0000E000000400000001B0000001356D0C048
:105700000E00000040000000250000001356D0C02D
:105710000E00000040000000310000001356D0C011
:105720000E000000400000003D0000005265766958
:105730006577205478204D756C746963616C6C6476
:105740006174613A526576696577205478204361C7
:105750006C6C646174613A436F6E74726163743A25
:105760001356D0C00E000000530000001A000000C5
:105770001356D0C00E0000005300000024000000AB
:105780001356D0C00E00000053000000300000008F
:105790001356D0C00E000000530000003C00000073
:1057A00053656C6563746F723AD4D4D41356D0C009
:1057B0000E0000005D0000001A00000053656C65DB
:1057C00063746F722063616C6C646174613AD4D4E9
:1057D0001356D0C00E00000070000000270000002B
:1057E0001356D0C00E000000700000003100000011
:1057F0001356D0C00E000000700000003D000000F5
:105800001356D0C00E0000007000000049000000D8
:10581000617373657274696F6E206661696C65642B
:105820003A206D6964203C3D2073656C662E6C6582
:105830006E282963616C6C65642060526573756CB9
:10584000743A3A756E77726170282960206F6E2005
:10585000616E2060457272602076616C7565D4D48B
:10586000872DD0C01000000004000000892DD0C09A
:105870005369676E4572726F72556E76616C6964BA
:10588000506174684C656E6774684572726F7255CA
:105890006E76616C6964506174685072656669788F
:1058A0004572726F72496E76616C69645061796C91
:1058B0006F61644C656E6D696E7061796C6F616467
:1058C0006D6178496E76616C6964534C656E496EA2
:1058D00076616C6964534D61726B6572496E766175
:1058E0006C6964524C656E496E76616C6964524DA8
:1058F00061726B6572496E76616C696444455250A1
:105900007265666978D4D4D400000000FFFFFF0000
:1059100000000000800020000100000043616E6371
:10592000656C75000800080008000C000200080003
:10593000080008000B0002000C00080008000B0023
:1059400075000C00080008000C0074000C00080032
:1059500008000A0004000C000800080009002F617C
:1059600070702F6C65646765722D6E616E6F732D3C
:1059700075692F7372632F75692E72730C000C009A
:1059800008000800080078000C00080008000A0061
:105990000C000C00080008000E0000000C000800BD
:1059A000080009005E59D0C01E0000007001000010
:1059B0001A0000000102FF0405FFFF08FFFFFFFFC0
:1059C0000D0E0F10FFFFFFFFFF16FF180921110139
:1059D000000122220006A0FF0901A1010903150010
:1059E00026FF007508954081080904150026FF0070
:1059F000750895409108C0D4D148D0C0E148D0C0C6
:105A0000F148D0C00149D0C01149D0C02149D0C00F
:105A10003149D0C04149D0C05D4AD0C08B4AD0C0C6
:105A2000CD49D0C000000000000000006948D0C08F
:105A30008148D0C00000000000000000000000000D
:105A4000AD49D0C0AD49D0C0AD49D0C0BD49D0C02E
:105A50001201000200000040972C01100102010217
:105A60000301040309040E034C0065006400670091
:105A7000650072000E034E0061006E006F00200092
:105A800053000A03300030003000310009022900C1
:105A9000010102C0320904000002030000020921D2
:105AA00011010001222200070582034000010705C1
:105AB0000203400001D4D4D40A06000200000040D2
:105AC0000100D4D4D4D4D4D4D4D4D4D4D4D4D4D43D
:105AD000D4D4D4D4D4D4D4D4D4D4D4D4D4D4D4D486
